{
  "address": "0x020d7429358cefef70Ce0E35eD9E12E23E283Cd9",
  "abi": [
    {
      "inputs": [
        {
          "internalType": "address",
          "name": "priceFeedAddress",
          "type": "address"
        },
        {
          "internalType": "string",
          "name": "lowSvg",
          "type": "string"
        },
        {
          "internalType": "string",
          "name": "highSvg",
          "type": "string"
        }
      ],
      "stateMutability": "nonpayable",
      "type": "constructor"
    },
    {
      "anonymous": false,
      "inputs": [
        {
          "indexed": true,
          "internalType": "address",
          "name": "owner",
          "type": "address"
        },
        {
          "indexed": true,
          "internalType": "address",
          "name": "approved",
          "type": "address"
        },
        {
          "indexed": true,
          "internalType": "uint256",
          "name": "tokenId",
          "type": "uint256"
        }
      ],
      "name": "Approval",
      "type": "event"
    },
    {
      "anonymous": false,
      "inputs": [
        {
          "indexed": true,
          "internalType": "address",
          "name": "owner",
          "type": "address"
        },
        {
          "indexed": true,
          "internalType": "address",
          "name": "operator",
          "type": "address"
        },
        {
          "indexed": false,
          "internalType": "bool",
          "name": "approved",
          "type": "bool"
        }
      ],
      "name": "ApprovalForAll",
      "type": "event"
    },
    {
      "anonymous": false,
      "inputs": [
        {
          "indexed": true,
          "internalType": "address",
          "name": "from",
          "type": "address"
        },
        {
          "indexed": true,
          "internalType": "address",
          "name": "to",
          "type": "address"
        },
        {
          "indexed": true,
          "internalType": "uint256",
          "name": "tokenId",
          "type": "uint256"
        }
      ],
      "name": "Transfer",
      "type": "event"
    },
    {
      "anonymous": false,
      "inputs": [
        {
          "indexed": true,
          "internalType": "uint256",
          "name": "tokenId",
          "type": "uint256"
        },
        {
          "indexed": false,
          "internalType": "int256",
          "name": "highValue",
          "type": "int256"
        }
      ],
      "name": "nftCreated",
      "type": "event"
    },
    {
      "inputs": [
        {
          "internalType": "address",
          "name": "to",
          "type": "address"
        },
        {
          "internalType": "uint256",
          "name": "tokenId",
          "type": "uint256"
        }
      ],
      "name": "approve",
      "outputs": [],
      "stateMutability": "nonpayable",
      "type": "function"
    },
    {
      "inputs": [
        {
          "internalType": "address",
          "name": "owner",
          "type": "address"
        }
      ],
      "name": "balanceOf",
      "outputs": [
        {
          "internalType": "uint256",
          "name": "",
          "type": "uint256"
        }
      ],
      "stateMutability": "view",
      "type": "function"
    },
    {
      "inputs": [
        {
          "internalType": "uint256",
          "name": "tokenId",
          "type": "uint256"
        }
      ],
      "name": "getApproved",
      "outputs": [
        {
          "internalType": "address",
          "name": "",
          "type": "address"
        }
      ],
      "stateMutability": "view",
      "type": "function"
    },
    {
      "inputs": [],
      "name": "getHighSVG",
      "outputs": [
        {
          "internalType": "string",
          "name": "",
          "type": "string"
        }
      ],
      "stateMutability": "view",
      "type": "function"
    },
    {
      "inputs": [],
      "name": "getLowSVG",
      "outputs": [
        {
          "internalType": "string",
          "name": "",
          "type": "string"
        }
      ],
      "stateMutability": "view",
      "type": "function"
    },
    {
      "inputs": [],
      "name": "getPriceFeed",
      "outputs": [
        {
          "internalType": "contract AggregatorV3Interface",
          "name": "",
          "type": "address"
        }
      ],
      "stateMutability": "view",
      "type": "function"
    },
    {
      "inputs": [],
      "name": "getTokenCounter",
      "outputs": [
        {
          "internalType": "uint256",
          "name": "",
          "type": "uint256"
        }
      ],
      "stateMutability": "view",
      "type": "function"
    },
    {
      "inputs": [
        {
          "internalType": "address",
          "name": "owner",
          "type": "address"
        },
        {
          "internalType": "address",
          "name": "operator",
          "type": "address"
        }
      ],
      "name": "isApprovedForAll",
      "outputs": [
        {
          "internalType": "bool",
          "name": "",
          "type": "bool"
        }
      ],
      "stateMutability": "view",
      "type": "function"
    },
    {
      "inputs": [
        {
          "internalType": "int256",
          "name": "highValue",
          "type": "int256"
        }
      ],
      "name": "mintNft",
      "outputs": [],
      "stateMutability": "nonpayable",
      "type": "function"
    },
    {
      "inputs": [],
      "name": "name",
      "outputs": [
        {
          "internalType": "string",
          "name": "",
          "type": "string"
        }
      ],
      "stateMutability": "view",
      "type": "function"
    },
    {
      "inputs": [
        {
          "internalType": "uint256",
          "name": "tokenId",
          "type": "uint256"
        }
      ],
      "name": "ownerOf",
      "outputs": [
        {
          "internalType": "address",
          "name": "",
          "type": "address"
        }
      ],
      "stateMutability": "view",
      "type": "function"
    },
    {
      "inputs": [
        {
          "internalType": "address",
          "name": "from",
          "type": "address"
        },
        {
          "internalType": "address",
          "name": "to",
          "type": "address"
        },
        {
          "internalType": "uint256",
          "name": "tokenId",
          "type": "uint256"
        }
      ],
      "name": "safeTransferFrom",
      "outputs": [],
      "stateMutability": "nonpayable",
      "type": "function"
    },
    {
      "inputs": [
        {
          "internalType": "address",
          "name": "from",
          "type": "address"
        },
        {
          "internalType": "address",
          "name": "to",
          "type": "address"
        },
        {
          "internalType": "uint256",
          "name": "tokenId",
          "type": "uint256"
        },
        {
          "internalType": "bytes",
          "name": "data",
          "type": "bytes"
        }
      ],
      "name": "safeTransferFrom",
      "outputs": [],
      "stateMutability": "nonpayable",
      "type": "function"
    },
    {
      "inputs": [
        {
          "internalType": "address",
          "name": "operator",
          "type": "address"
        },
        {
          "internalType": "bool",
          "name": "approved",
          "type": "bool"
        }
      ],
      "name": "setApprovalForAll",
      "outputs": [],
      "stateMutability": "nonpayable",
      "type": "function"
    },
    {
      "inputs": [
        {
          "internalType": "bytes4",
          "name": "interfaceId",
          "type": "bytes4"
        }
      ],
      "name": "supportsInterface",
      "outputs": [
        {
          "internalType": "bool",
          "name": "",
          "type": "bool"
        }
      ],
      "stateMutability": "view",
      "type": "function"
    },
    {
      "inputs": [
        {
          "internalType": "string",
          "name": "svg",
          "type": "string"
        }
      ],
      "name": "svgToImageUri",
      "outputs": [
        {
          "internalType": "string",
          "name": "",
          "type": "string"
        }
      ],
      "stateMutability": "pure",
      "type": "function"
    },
    {
      "inputs": [],
      "name": "symbol",
      "outputs": [
        {
          "internalType": "string",
          "name": "",
          "type": "string"
        }
      ],
      "stateMutability": "view",
      "type": "function"
    },
    {
      "inputs": [
        {
          "internalType": "uint256",
          "name": "tokenId",
          "type": "uint256"
        }
      ],
      "name": "tokenURI",
      "outputs": [
        {
          "internalType": "string",
          "name": "",
          "type": "string"
        }
      ],
      "stateMutability": "view",
      "type": "function"
    },
    {
      "inputs": [
        {
          "internalType": "address",
          "name": "from",
          "type": "address"
        },
        {
          "internalType": "address",
          "name": "to",
          "type": "address"
        },
        {
          "internalType": "uint256",
          "name": "tokenId",
          "type": "uint256"
        }
      ],
      "name": "transferFrom",
      "outputs": [],
      "stateMutability": "nonpayable",
      "type": "function"
    }
  ],
  "transactionHash": "0x1fc1cfe1550b102c4b49bffda9c99cee3cb9de81c1a5354e758535a6b96d1378",
  "args": [
    "0x694AA1769357215DE4FAC081bf1f309aDC325306",
    "<?xml version=\"1.0\" standalone=\"no\"?>\n<svg width=\"1024px\" height=\"1024px\" viewBox=\"0 0 1024 1024\" xmlns=\"http://www.w3.org/2000/svg\">\n  <path fill=\"#333\" d=\"M512 64C264.6 64 64 264.6 64 512s200.6 448 448 448 448-200.6 448-448S759.4 64 512 64zm0 820c-205.4 0-372-166.6-372-372s166.6-372 372-372 372 166.6 372 372-166.6 372-372 372z\"/>\n  <path fill=\"#E6E6E6\" d=\"M512 140c-205.4 0-372 166.6-372 372s166.6 372 372 372 372-166.6 372-372-166.6-372-372-372zM288 421a48.01 48.01 0 0 1 96 0 48.01 48.01 0 0 1-96 0zm376 272h-48.1c-4.2 0-7.8-3.2-8.1-7.4C604 636.1 562.5 597 512 597s-92.1 39.1-95.8 88.6c-.3 4.2-3.9 7.4-8.1 7.4H360a8 8 0 0 1-8-8.4c4.4-84.3 74.5-151.6 160-151.6s155.6 67.3 160 151.6a8 8 0 0 1-8 8.4zm24-224a48.01 48.01 0 0 1 0-96 48.01 48.01 0 0 1 0 96z\"/>\n  <path fill=\"#333\" d=\"M288 421a48 48 0 1 0 96 0 48 48 0 1 0-96 0zm224 112c-85.5 0-155.6 67.3-160 151.6a8 8 0 0 0 8 8.4h48.1c4.2 0 7.8-3.2 8.1-7.4 3.7-49.5 45.3-88.6 95.8-88.6s92 39.1 95.8 88.6c.3 4.2 3.9 7.4 8.1 7.4H664a8 8 0 0 0 8-8.4C667.6 600.3 597.5 533 512 533zm128-112a48 48 0 1 0 96 0 48 48 0 1 0-96 0z\"/>\n</svg>\n",
    "<svg viewBox=\"0 0 200 200\" width=\"400\"  height=\"400\" xmlns=\"http://www.w3.org/2000/svg\">\n  <circle cx=\"100\" cy=\"100\" fill=\"yellow\" r=\"78\" stroke=\"black\" stroke-width=\"3\"/>\n  <g class=\"eyes\">\n    <circle cx=\"61\" cy=\"82\" r=\"12\"/>\n    <circle cx=\"127\" cy=\"82\" r=\"12\"/>\n  </g>\n  <path d=\"m136.81 116.53c.69 26.17-64.11 42-81.52-.73\" style=\"fill:none; stroke: black; stroke-width: 3;\"/>\n</svg>"
  ],
  "numDeployments": 1,
  "solcInputHash": "c4d753fb7fd82c6da7a307565d54d962",
  "bytecode": "0x60a06040523480156200001157600080fd5b5060405162003ab938038062003ab983398181016040528101906200003791906200064f565b6040518060400160405280600d81526020017f44796e616d69635376674e6674000000000000000000000000000000000000008152506040518060400160405280600381526020017f44534e00000000000000000000000000000000000000000000000000000000008152508160009080519060200190620000bb9291906200039d565b508060019080519060200190620000d49291906200039d565b5050506000600681905550620000f0826200017160201b60201c565b60079080519060200190620001079291906200039d565b5062000119816200017160201b60201c565b60089080519060200190620001309291906200039d565b508273ffffffffffffffffffffffffffffffffffffffff1660808173ffffffffffffffffffffffffffffffffffffffff1660601b815250505050506200093a565b60606000620001ac836040516020016200018c919062000736565b6040516020818303038152906040526200020f60201b62000f7d1760201c565b90506040518060400160405280601a81526020017f646174613a696d6167652f7376672b786d6c3b6261736536342c00000000000081525081604051602001620001f89291906200074f565b604051602081830303815290604052915050919050565b6060600082511415620002345760405180602001604052806000815250905062000398565b600060405180606001604052806040815260200162003a796040913990506000600360028551620002669190620007b0565b6200027291906200083c565b600462000280919062000874565b90506000602082620002939190620007b0565b67ffffffffffffffff811115620002af57620002ae620004e1565b5b6040519080825280601f01601f191660200182016040528015620002e25781602001600182028036833780820191505090505b509050818152600183018586518101602084015b8183101562000353576003830192508251603f8160121c168501518253600182019150603f81600c1c168501518253600182019150603f8160061c168501518253600182019150603f8116850151825360018201915050620002f6565b60038951066001811462000370576002811462000381576200038c565b613d3d60f01b60028303526200038c565b603d60f81b60018303525b50505050508093505050505b919050565b828054620003ab9062000904565b90600052602060002090601f016020900481019282620003cf57600085556200041b565b82601f10620003ea57805160ff19168380011785556200041b565b828001600101855582156200041b579182015b828111156200041a578251825591602001919060010190620003fd565b5b5090506200042a91906200042e565b5090565b5b80821115620004495760008160009055506001016200042f565b5090565b6000604051905090565b600080fd5b600080fd5b600073ffffffffffffffffffffffffffffffffffffffff82169050919050565b60006200048e8262000461565b9050919050565b620004a08162000481565b8114620004ac57600080fd5b50565b600081519050620004c08162000495565b92915050565b600080fd5b600080fd5b6000601f19601f8301169050919050565b7f4e487b7100000000000000000000000000000000000000000000000000000000600052604160045260246000fd5b6200051b82620004d0565b810181811067ffffffffffffffff821117156200053d576200053c620004e1565b5b80604052505050565b6000620005526200044d565b905062000560828262000510565b919050565b600067ffffffffffffffff821115620005835762000582620004e1565b5b6200058e82620004d0565b9050602081019050919050565b60005b83811015620005bb5780820151818401526020810190506200059e565b83811115620005cb576000848401525b50505050565b6000620005e8620005e28462000565565b62000546565b905082815260208101848484011115620006075762000606620004cb565b5b620006148482856200059b565b509392505050565b600082601f830112620006345762000633620004c6565b5b815162000646848260208601620005d1565b91505092915050565b6000806000606084860312156200066b576200066a62000457565b5b60006200067b86828701620004af565b935050602084015167ffffffffffffffff8111156200069f576200069e6200045c565b5b620006ad868287016200061c565b925050604084015167ffffffffffffffff811115620006d157620006d06200045c565b5b620006df868287016200061c565b9150509250925092565b600081519050919050565b600081905092915050565b60006200070c82620006e9565b620007188185620006f4565b93506200072a8185602086016200059b565b80840191505092915050565b6000620007448284620006ff565b915081905092915050565b60006200075d8285620006ff565b91506200076b8284620006ff565b91508190509392505050565b6000819050919050565b7f4e487b7100000000000000000000000000000000000000000000000000000000600052601160045260246000fd5b6000620007bd8262000777565b9150620007ca8362000777565b9250827fffffffffffffffffffffffffffffffffffffffffffffffffffffffffffffffff0382111562000802576200080162000781565b5b828201905092915050565b7f4e487b7100000000000000000000000000000000000000000000000000000000600052601260045260246000fd5b6000620008498262000777565b9150620008568362000777565b9250826200086957620008686200080d565b5b828204905092915050565b6000620008818262000777565b91506200088e8362000777565b9250817fffffffffffffffffffffffffffffffffffffffffffffffffffffffffffffffff0483118215151615620008ca57620008c962000781565b5b828202905092915050565b7f4e487b7100000000000000000000000000000000000000000000000000000000600052602260045260246000fd5b600060028204905060018216806200091d57607f821691505b60208210811415620009345762000933620008d5565b5b50919050565b60805160601c6131196200096060003960008181610a9a0152610b8401526131196000f3fe608060405234801561001057600080fd5b50600436106101215760003560e01c80636e02007d116100ad578063a22cb46511610071578063a22cb4651461031c578063b88d4fde14610338578063c87b56dd14610354578063e985e9c514610384578063ed28a122146103b457610121565b80636e02007d1461027457806370a082311461029257806376f6056b146102c257806395d89b41146102e05780639e87a5cd146102fe57610121565b80631e930812116100f45780631e930812146101c057806323b872dd146101dc5780633207d93c146101f857806342842e0e146102285780636352211e1461024457610121565b806301ffc9a71461012657806306fdde0314610156578063081812fc14610174578063095ea7b3146101a4575b600080fd5b610140600480360381019061013b9190611d48565b6103d2565b60405161014d9190611d90565b60405180910390f35b61015e6104b4565b60405161016b9190611e44565b60405180910390f35b61018e60048036038101906101899190611e9c565b610546565b60405161019b9190611f0a565b60405180910390f35b6101be60048036038101906101b99190611f51565b61058c565b005b6101da60048036038101906101d59190611fc7565b6106a4565b005b6101f660048036038101906101f19190611ff4565b61071c565b005b610212600480360381019061020d919061217c565b61077c565b60405161021f9190611e44565b60405180910390f35b610242600480360381019061023d9190611ff4565b610809565b005b61025e60048036038101906102599190611e9c565b610829565b60405161026b9190611f0a565b60405180910390f35b61027c6108b0565b60405161028991906121d4565b60405180910390f35b6102ac60048036038101906102a791906121ef565b6108ba565b6040516102b991906121d4565b60405180910390f35b6102ca610972565b6040516102d79190611e44565b60405180910390f35b6102e8610a04565b6040516102f59190611e44565b60405180910390f35b610306610a96565b604051610313919061227b565b60405180910390f35b610336600480360381019061033191906122c2565b610abe565b005b610352600480360381019061034d91906123a3565b610ad4565b005b61036e60048036038101906103699190611e9c565b610b36565b60405161037b9190611e44565b60405180910390f35b61039e60048036038101906103999190612426565b610e57565b6040516103ab9190611d90565b60405180910390f35b6103bc610eeb565b6040516103c99190611e44565b60405180910390f35b60007f80ac58cd000000000000000000000000000000000000000000000000000000007bffffffffffffffffffffffffffffffffffffffffffffffffffffffff1916827bffffffffffffffffffffffffffffffffffffffffffffffffffffffff1916148061049d57507f5b5e139f000000000000000000000000000000000000000000000000000000007bffffffffffffffffffffffffffffffffffffffffffffffffffffffff1916827bffffffffffffffffffffffffffffffffffffffffffffffffffffffff1916145b806104ad57506104ac826110f6565b5b9050919050565b6060600080546104c390612495565b80601f01602080910402602001604051908101604052809291908181526020018280546104ef90612495565b801561053c5780601f106105115761010080835404028352916020019161053c565b820191906000526020600020905b81548152906001019060200180831161051f57829003601f168201915b5050505050905090565b600061055182611160565b6004600083815260200190815260200160002060009054906101000a900473ffffffffffffffffffffffffffffffffffffffff169050919050565b600061059782610829565b90508073ffffffffffffffffffffffffffffffffffffffff168373ffffffffffffffffffffffffffffffffffffffff161415610608576040517f08c379a00000000000000000000000000000000000000000000000000000000081526004016105ff90612539565b60405180910390fd5b8073ffffffffffffffffffffffffffffffffffffffff166106276111ab565b73ffffffffffffffffffffffffffffffffffffffff1614806106565750610655816106506111ab565b610e57565b5b610695576040517f08c379a000000000000000000000000000000000000000000000000000000000815260040161068c906125cb565b60405180910390fd5b61069f83836111b3565b505050565b80600960006006548152602001908152602001600020819055506106ca3360065461126c565b60016006546106d9919061261a565b6006819055506006547fff3ab0ca29450ae50c4620f8d3a75e7973231e574011acc9d268a07f0b18930582604051610711919061267f565b60405180910390a250565b61072d6107276111ab565b8261128a565b61076c576040517f08c379a00000000000000000000000000000000000000000000000000000000081526004016107639061270c565b60405180910390fd5b61077783838361131f565b505050565b606060006107a8836040516020016107949190612768565b604051602081830303815290604052610f7d565b90506040518060400160405280601a81526020017f646174613a696d6167652f7376672b786d6c3b6261736536342c000000000000815250816040516020016107f292919061277f565b604051602081830303815290604052915050919050565b61082483838360405180602001604052806000815250610ad4565b505050565b60008061083583611619565b9050600073ffffffffffffffffffffffffffffffffffffffff168173ffffffffffffffffffffffffffffffffffffffff1614156108a7576040517f08c379a000000000000000000000000000000000000000000000000000000000815260040161089e906127ef565b60405180910390fd5b80915050919050565b6000600654905090565b60008073ffffffffffffffffffffffffffffffffffffffff168273ffffffffffffffffffffffffffffffffffffffff16141561092b576040517f08c379a000000000000000000000000000000000000000000000000000000000815260040161092290612881565b60405180910390fd5b600360008373ffffffffffffffffffffffffffffffffffffffff1673ffffffffffffffffffffffffffffffffffffffff168152602001908152602001600020549050919050565b60606008805461098190612495565b80601f01602080910402602001604051908101604052809291908181526020018280546109ad90612495565b80156109fa5780601f106109cf576101008083540402835291602001916109fa565b820191906000526020600020905b8154815290600101906020018083116109dd57829003601f168201915b5050505050905090565b606060018054610a1390612495565b80601f0160208091040260200160405190810160405280929190818152602001828054610a3f90612495565b8015610a8c5780601f10610a6157610100808354040283529160200191610a8c565b820191906000526020600020905b815481529060010190602001808311610a6f57829003601f168201915b5050505050905090565b60007f0000000000000000000000000000000000000000000000000000000000000000905090565b610ad0610ac96111ab565b8383611656565b5050565b610ae5610adf6111ab565b8361128a565b610b24576040517f08c379a0000000000000000000000000000000000000000000000000000000008152600401610b1b9061270c565b60405180910390fd5b610b30848484846117c3565b50505050565b6060610b418261181f565b610b80576040517f08c379a0000000000000000000000000000000000000000000000000000000008152600401610b77906128ed565b60405180910390fd5b60007f000000000000000000000000000000000000000000000000000000000000000073ffffffffffffffffffffffffffffffffffffffff1663feaf968c6040518163ffffffff1660e01b815260040160a06040518083038186803b158015610be857600080fd5b505afa158015610bfc573d6000803e3d6000fd5b505050506040513d601f19601f82011682018060405250810190610c209190612979565b505050915050600060088054610c3590612495565b80601f0160208091040260200160405190810160405280929190818152602001828054610c6190612495565b8015610cae5780601f10610c8357610100808354040283529160200191610cae565b820191906000526020600020905b815481529060010190602001808311610c9157829003601f168201915b5050505050905060096000600654815260200190815260200160002054821215610d655760078054610cdf90612495565b80601f0160208091040260200160405190810160405280929190818152602001828054610d0b90612495565b8015610d585780601f10610d2d57610100808354040283529160200191610d58565b820191906000526020600020905b815481529060010190602001808311610d3b57829003601f168201915b5050505050905080610df4565b60088054610d7290612495565b80601f0160208091040260200160405190810160405280929190818152602001828054610d9e90612495565b8015610deb5780601f10610dc057610100808354040283529160200191610deb565b820191906000526020600020905b815481529060010190602001808311610dce57829003601f168201915b50505050509050805b50610dfd611860565b610e2e610e086104b4565b83604051602001610e1a929190612bbc565b604051602081830303815290604052610f7d565b604051602001610e3f92919061277f565b60405160208183030381529060405292505050919050565b6000600560008473ffffffffffffffffffffffffffffffffffffffff1673ffffffffffffffffffffffffffffffffffffffff16815260200190815260200160002060008373ffffffffffffffffffffffffffffffffffffffff1673ffffffffffffffffffffffffffffffffffffffff16815260200190815260200160002060009054906101000a900460ff16905092915050565b606060078054610efa90612495565b80601f0160208091040260200160405190810160405280929190818152602001828054610f2690612495565b8015610f735780601f10610f4857610100808354040283529160200191610f73565b820191906000526020600020905b815481529060010190602001808311610f5657829003601f168201915b5050505050905090565b6060600082511415610fa0576040518060200160405280600081525090506110f1565b60006040518060600160405280604081526020016130a46040913990506000600360028551610fcf919061261a565b610fd99190612c3b565b6004610fe59190612c6c565b90506000602082610ff6919061261a565b67ffffffffffffffff81111561100f5761100e612051565b5b6040519080825280601f01601f1916602001820160405280156110415781602001600182028036833780820191505090505b509050818152600183018586518101602084015b818310156110b0576003830192508251603f8160121c168501518253600182019150603f81600c1c168501518253600182019150603f8160061c168501518253600182019150603f8116850151825360018201915050611055565b6003895106600181146110ca57600281146110da576110e5565b613d3d60f01b60028303526110e5565b603d60f81b60018303525b50505050508093505050505b919050565b60007f01ffc9a7000000000000000000000000000000000000000000000000000000007bffffffffffffffffffffffffffffffffffffffffffffffffffffffff1916827bffffffffffffffffffffffffffffffffffffffffffffffffffffffff1916149050919050565b6111698161181f565b6111a8576040517f08c379a000000000000000000000000000000000000000000000000000000000815260040161119f906127ef565b60405180910390fd5b50565b600033905090565b816004600083815260200190815260200160002060006101000a81548173ffffffffffffffffffffffffffffffffffffffff021916908373ffffffffffffffffffffffffffffffffffffffff160217905550808273ffffffffffffffffffffffffffffffffffffffff1661122683610829565b73ffffffffffffffffffffffffffffffffffffffff167f8c5be1e5ebec7d5bd14f71427d1e84f3dd0314c0f7b2291e5b200ac8c7c3b92560405160405180910390a45050565b61128682826040518060200160405280600081525061189d565b5050565b60008061129683610829565b90508073ffffffffffffffffffffffffffffffffffffffff168473ffffffffffffffffffffffffffffffffffffffff1614806112d857506112d78185610e57565b5b8061131657508373ffffffffffffffffffffffffffffffffffffffff166112fe84610546565b73ffffffffffffffffffffffffffffffffffffffff16145b91505092915050565b8273ffffffffffffffffffffffffffffffffffffffff1661133f82610829565b73ffffffffffffffffffffffffffffffffffffffff1614611395576040517f08c379a000000000000000000000000000000000000000000000000000000000815260040161138c90612d38565b60405180910390fd5b600073ffffffffffffffffffffffffffffffffffffffff168273ffffffffffffffffffffffffffffffffffffffff161415611405576040517f08c379a00000000000000000000000000000000000000000000000000000000081526004016113fc90612dca565b60405180910390fd5b61141283838360016118f8565b8273ffffffffffffffffffffffffffffffffffffffff1661143282610829565b73ffffffffffffffffffffffffffffffffffffffff1614611488576040517f08c379a000000000000000000000000000000000000000000000000000000000815260040161147f90612d38565b60405180910390fd5b6004600082815260200190815260200160002060006101000a81549073ffffffffffffffffffffffffffffffffffffffff02191690556001600360008573ffffffffffffffffffffffffffffffffffffffff1673ffffffffffffffffffffffffffffffffffffffff168152602001908152602001600020600082825403925050819055506001600360008473ffffffffffffffffffffffffffffffffffffffff1673ffffffffffffffffffffffffffffffffffffffff16815260200190815260200160002060008282540192505081905550816002600083815260200190815260200160002060006101000a81548173ffffffffffffffffffffffffffffffffffffffff021916908373ffffffffffffffffffffffffffffffffffffffff160217905550808273ffffffffffffffffffffffffffffffffffffffff168473ffffffffffffffffffffffffffffffffffffffff167fddf252ad1be2c89b69c2b068fc378daa952ba7f163c4a11628f55a4df523b3ef60405160405180910390a461161483838360016118fe565b505050565b60006002600083815260200190815260200160002060009054906101000a900473ffffffffffffffffffffffffffffffffffffffff169050919050565b8173ffffffffffffffffffffffffffffffffffffffff168373ffffffffffffffffffffffffffffffffffffffff1614156116c5576040517f08c379a00000000000000000000000000000000000000000000000000000000081526004016116bc90612e36565b60405180910390fd5b80600560008573ffffffffffffffffffffffffffffffffffffffff1673ffffffffffffffffffffffffffffffffffffffff16815260200190815260200160002060008473ffffffffffffffffffffffffffffffffffffffff1673ffffffffffffffffffffffffffffffffffffffff16815260200190815260200160002060006101000a81548160ff0219169083151502179055508173ffffffffffffffffffffffffffffffffffffffff168373ffffffffffffffffffffffffffffffffffffffff167f17307eab39ab6107e8899845ad3d59bd9653f200f220920489ca2b5937696c31836040516117b69190611d90565b60405180910390a3505050565b6117ce84848461131f565b6117da84848484611904565b611819576040517f08c379a000000000000000000000000000000000000000000000000000000000815260040161181090612ec8565b60405180910390fd5b50505050565b60008073ffffffffffffffffffffffffffffffffffffffff1661184183611619565b73ffffffffffffffffffffffffffffffffffffffff1614159050919050565b60606040518060400160405280601d81526020017f646174613a6170706c69636174696f6e2f6a736f6e3b6261736536342c000000815250905090565b6118a78383611a9b565b6118b46000848484611904565b6118f3576040517f08c379a00000000000000000000000000000000000000000000000000000000081526004016118ea90612ec8565b60405180910390fd5b505050565b50505050565b50505050565b60006119258473ffffffffffffffffffffffffffffffffffffffff16611cb9565b15611a8e578373ffffffffffffffffffffffffffffffffffffffff1663150b7a0261194e6111ab565b8786866040518563ffffffff1660e01b81526004016119709493929190612f3d565b602060405180830381600087803b15801561198a57600080fd5b505af19250505080156119bb57506040513d601f19601f820116820180604052508101906119b89190612f9e565b60015b611a3e573d80600081146119eb576040519150601f19603f3d011682016040523d82523d6000602084013e6119f0565b606091505b50600081511415611a36576040517f08c379a0000000000000000000000000000000000000000000000000000000008152600401611a2d90612ec8565b60405180910390fd5b805181602001fd5b63150b7a0260e01b7bffffffffffffffffffffffffffffffffffffffffffffffffffffffff1916817bffffffffffffffffffffffffffffffffffffffffffffffffffffffff191614915050611a93565b600190505b949350505050565b600073ffffffffffffffffffffffffffffffffffffffff168273ffffffffffffffffffffffffffffffffffffffff161415611b0b576040517f08c379a0000000000000000000000000000000000000000000000000000000008152600401611b0290613017565b60405180910390fd5b611b148161181f565b15611b54576040517f08c379a0000000000000000000000000000000000000000000000000000000008152600401611b4b90613083565b60405180910390fd5b611b626000838360016118f8565b611b6b8161181f565b15611bab576040517f08c379a0000000000000000000000000000000000000000000000000000000008152600401611ba290613083565b60405180910390fd5b6001600360008473ffffffffffffffffffffffffffffffffffffffff1673ffffffffffffffffffffffffffffffffffffffff16815260200190815260200160002060008282540192505081905550816002600083815260200190815260200160002060006101000a81548173ffffffffffffffffffffffffffffffffffffffff021916908373ffffffffffffffffffffffffffffffffffffffff160217905550808273ffffffffffffffffffffffffffffffffffffffff16600073ffffffffffffffffffffffffffffffffffffffff167fddf252ad1be2c89b69c2b068fc378daa952ba7f163c4a11628f55a4df523b3ef60405160405180910390a4611cb56000838360016118fe565b5050565b6000808273ffffffffffffffffffffffffffffffffffffffff163b119050919050565b6000604051905090565b600080fd5b600080fd5b60007fffffffff0000000000000000000000000000000000000000000000000000000082169050919050565b611d2581611cf0565b8114611d3057600080fd5b50565b600081359050611d4281611d1c565b92915050565b600060208284031215611d5e57611d5d611ce6565b5b6000611d6c84828501611d33565b91505092915050565b60008115159050919050565b611d8a81611d75565b82525050565b6000602082019050611da56000830184611d81565b92915050565b600081519050919050565b600082825260208201905092915050565b60005b83811015611de5578082015181840152602081019050611dca565b83811115611df4576000848401525b50505050565b6000601f19601f8301169050919050565b6000611e1682611dab565b611e208185611db6565b9350611e30818560208601611dc7565b611e3981611dfa565b840191505092915050565b60006020820190508181036000830152611e5e8184611e0b565b905092915050565b6000819050919050565b611e7981611e66565b8114611e8457600080fd5b50565b600081359050611e9681611e70565b92915050565b600060208284031215611eb257611eb1611ce6565b5b6000611ec084828501611e87565b91505092915050565b600073ffffffffffffffffffffffffffffffffffffffff82169050919050565b6000611ef482611ec9565b9050919050565b611f0481611ee9565b82525050565b6000602082019050611f1f6000830184611efb565b92915050565b611f2e81611ee9565b8114611f3957600080fd5b50565b600081359050611f4b81611f25565b92915050565b60008060408385031215611f6857611f67611ce6565b5b6000611f7685828601611f3c565b9250506020611f8785828601611e87565b9150509250929050565b6000819050919050565b611fa481611f91565b8114611faf57600080fd5b50565b600081359050611fc181611f9b565b92915050565b600060208284031215611fdd57611fdc611ce6565b5b6000611feb84828501611fb2565b91505092915050565b60008060006060848603121561200d5761200c611ce6565b5b600061201b86828701611f3c565b935050602061202c86828701611f3c565b925050604061203d86828701611e87565b9150509250925092565b600080fd5b600080fd5b7f4e487b7100000000000000000000000000000000000000000000000000000000600052604160045260246000fd5b61208982611dfa565b810181811067ffffffffffffffff821117156120a8576120a7612051565b5b80604052505050565b60006120bb611cdc565b90506120c78282612080565b919050565b600067ffffffffffffffff8211156120e7576120e6612051565b5b6120f082611dfa565b9050602081019050919050565b82818337600083830152505050565b600061211f61211a846120cc565b6120b1565b90508281526020810184848401111561213b5761213a61204c565b5b6121468482856120fd565b509392505050565b600082601f83011261216357612162612047565b5b813561217384826020860161210c565b91505092915050565b60006020828403121561219257612191611ce6565b5b600082013567ffffffffffffffff8111156121b0576121af611ceb565b5b6121bc8482850161214e565b91505092915050565b6121ce81611e66565b82525050565b60006020820190506121e960008301846121c5565b92915050565b60006020828403121561220557612204611ce6565b5b600061221384828501611f3c565b91505092915050565b6000819050919050565b600061224161223c61223784611ec9565b61221c565b611ec9565b9050919050565b600061225382612226565b9050919050565b600061226582612248565b9050919050565b6122758161225a565b82525050565b6000602082019050612290600083018461226c565b92915050565b61229f81611d75565b81146122aa57600080fd5b50565b6000813590506122bc81612296565b92915050565b600080604083850312156122d9576122d8611ce6565b5b60006122e785828601611f3c565b92505060206122f8858286016122ad565b9150509250929050565b600067ffffffffffffffff82111561231d5761231c612051565b5b61232682611dfa565b9050602081019050919050565b600061234661234184612302565b6120b1565b9050828152602081018484840111156123625761236161204c565b5b61236d8482856120fd565b509392505050565b600082601f83011261238a57612389612047565b5b813561239a848260208601612333565b91505092915050565b600080600080608085870312156123bd576123bc611ce6565b5b60006123cb87828801611f3c565b94505060206123dc87828801611f3c565b93505060406123ed87828801611e87565b925050606085013567ffffffffffffffff81111561240e5761240d611ceb565b5b61241a87828801612375565b91505092959194509250565b6000806040838503121561243d5761243c611ce6565b5b600061244b85828601611f3c565b925050602061245c85828601611f3c565b9150509250929050565b7f4e487b7100000000000000000000000000000000000000000000000000000000600052602260045260246000fd5b600060028204905060018216806124ad57607f821691505b602082108114156124c1576124c0612466565b5b50919050565b7f4552433732313a20617070726f76616c20746f2063757272656e74206f776e6560008201527f7200000000000000000000000000000000000000000000000000000000000000602082015250565b6000612523602183611db6565b915061252e826124c7565b604082019050919050565b6000602082019050818103600083015261255281612516565b9050919050565b7f4552433732313a20617070726f76652063616c6c6572206973206e6f7420746f60008201527f6b656e206f776e6572206f7220617070726f76656420666f7220616c6c000000602082015250565b60006125b5603d83611db6565b91506125c082612559565b604082019050919050565b600060208201905081810360008301526125e4816125a8565b9050919050565b7f4e487b7100000000000000000000000000000000000000000000000000000000600052601160045260246000fd5b600061262582611e66565b915061263083611e66565b9250827fffffffffffffffffffffffffffffffffffffffffffffffffffffffffffffffff03821115612665576126646125eb565b5b828201905092915050565b61267981611f91565b82525050565b60006020820190506126946000830184612670565b92915050565b7f4552433732313a2063616c6c6572206973206e6f7420746f6b656e206f776e6560008201527f72206f7220617070726f76656400000000000000000000000000000000000000602082015250565b60006126f6602d83611db6565b91506127018261269a565b604082019050919050565b60006020820190508181036000830152612725816126e9565b9050919050565b600081905092915050565b600061274282611dab565b61274c818561272c565b935061275c818560208601611dc7565b80840191505092915050565b60006127748284612737565b915081905092915050565b600061278b8285612737565b91506127978284612737565b91508190509392505050565b7f4552433732313a20696e76616c696420746f6b656e2049440000000000000000600082015250565b60006127d9601883611db6565b91506127e4826127a3565b602082019050919050565b60006020820190508181036000830152612808816127cc565b9050919050565b7f4552433732313a2061646472657373207a65726f206973206e6f74206120766160008201527f6c6964206f776e65720000000000000000000000000000000000000000000000602082015250565b600061286b602983611db6565b91506128768261280f565b604082019050919050565b6000602082019050818103600083015261289a8161285e565b9050919050565b7f517565727920666f72206e6f6e206578697374696e6720746f6b656e00000000600082015250565b60006128d7601c83611db6565b91506128e2826128a1565b602082019050919050565b60006020820190508181036000830152612906816128ca565b9050919050565b600069ffffffffffffffffffff82169050919050565b61292c8161290d565b811461293757600080fd5b50565b60008151905061294981612923565b92915050565b60008151905061295e81611f9b565b92915050565b60008151905061297381611e70565b92915050565b600080600080600060a0868803121561299557612994611ce6565b5b60006129a38882890161293a565b95505060206129b48882890161294f565b94505060406129c588828901612964565b93505060606129d688828901612964565b92505060806129e78882890161293a565b9150509295509295909350565b7f7b226e616d65223a220000000000000000000000000000000000000000000000600082015250565b6000612a2a60098361272c565b9150612a35826129f4565b600982019050919050565b7f222c20226465736372697074696f6e223a22416e204e4654207468617420636860008201527f616e676573206261736564206f6e2074686520436861696e6c696e6b2046656560208201527f64222c2000000000000000000000000000000000000000000000000000000000604082015250565b6000612ac260448361272c565b9150612acd82612a40565b604482019050919050565b7f2261747472696275746573223a205b7b2274726169745f74797065223a20226360008201527f6f6f6c6e657373222c202276616c7565223a203130307d5d2c2022696d61676560208201527f223a220000000000000000000000000000000000000000000000000000000000604082015250565b6000612b5a60438361272c565b9150612b6582612ad8565b604382019050919050565b7f227d000000000000000000000000000000000000000000000000000000000000600082015250565b6000612ba660028361272c565b9150612bb182612b70565b600282019050919050565b6000612bc782612a1d565b9150612bd38285612737565b9150612bde82612ab5565b9150612be982612b4d565b9150612bf58284612737565b9150612c0082612b99565b91508190509392505050565b7f4e487b7100000000000000000000000000000000000000000000000000000000600052601260045260246000fd5b6000612c4682611e66565b9150612c5183611e66565b925082612c6157612c60612c0c565b5b828204905092915050565b6000612c7782611e66565b9150612c8283611e66565b9250817fffffffffffffffffffffffffffffffffffffffffffffffffffffffffffffffff0483118215151615612cbb57612cba6125eb565b5b828202905092915050565b7f4552433732313a207472616e736665722066726f6d20696e636f72726563742060008201527f6f776e6572000000000000000000000000000000000000000000000000000000602082015250565b6000612d22602583611db6565b9150612d2d82612cc6565b604082019050919050565b60006020820190508181036000830152612d5181612d15565b9050919050565b7f4552433732313a207472616e7366657220746f20746865207a65726f2061646460008201527f7265737300000000000000000000000000000000000000000000000000000000602082015250565b6000612db4602483611db6565b9150612dbf82612d58565b604082019050919050565b60006020820190508181036000830152612de381612da7565b9050919050565b7f4552433732313a20617070726f766520746f2063616c6c657200000000000000600082015250565b6000612e20601983611db6565b9150612e2b82612dea565b602082019050919050565b60006020820190508181036000830152612e4f81612e13565b9050919050565b7f4552433732313a207472616e7366657220746f206e6f6e20455243373231526560008201527f63656976657220696d706c656d656e7465720000000000000000000000000000602082015250565b6000612eb2603283611db6565b9150612ebd82612e56565b604082019050919050565b60006020820190508181036000830152612ee181612ea5565b9050919050565b600081519050919050565b600082825260208201905092915050565b6000612f0f82612ee8565b612f198185612ef3565b9350612f29818560208601611dc7565b612f3281611dfa565b840191505092915050565b6000608082019050612f526000830187611efb565b612f5f6020830186611efb565b612f6c60408301856121c5565b8181036060830152612f7e8184612f04565b905095945050505050565b600081519050612f9881611d1c565b92915050565b600060208284031215612fb457612fb3611ce6565b5b6000612fc284828501612f89565b91505092915050565b7f4552433732313a206d696e7420746f20746865207a65726f2061646472657373600082015250565b6000613001602083611db6565b915061300c82612fcb565b602082019050919050565b6000602082019050818103600083015261303081612ff4565b9050919050565b7f4552433732313a20746f6b656e20616c7265616479206d696e74656400000000600082015250565b600061306d601c83611db6565b915061307882613037565b602082019050919050565b6000602082019050818103600083015261309c81613060565b905091905056fe4142434445464748494a4b4c4d4e4f505152535455565758595a6162636465666768696a6b6c6d6e6f707172737475767778797a303132333435363738392b2fa26469706673582212209329d1da1ce9cd072de76efe07cc1576a8f48f1d60de2396b06848e9d131228764736f6c634300080800334142434445464748494a4b4c4d4e4f505152535455565758595a6162636465666768696a6b6c6d6e6f707172737475767778797a303132333435363738392b2f",
  "devdoc": {
    "kind": "dev",
    "methods": {
      "approve(address,uint256)": {
        "details": "See {IERC721-approve}."
      },
      "balanceOf(address)": {
        "details": "See {IERC721-balanceOf}."
      },
      "getApproved(uint256)": {
        "details": "See {IERC721-getApproved}."
      },
      "isApprovedForAll(address,address)": {
        "details": "See {IERC721-isApprovedForAll}."
      },
      "name()": {
        "details": "See {IERC721Metadata-name}."
      },
      "ownerOf(uint256)": {
        "details": "See {IERC721-ownerOf}."
      },
      "safeTransferFrom(address,address,uint256)": {
        "details": "See {IERC721-safeTransferFrom}."
      },
      "safeTransferFrom(address,address,uint256,bytes)": {
        "details": "See {IERC721-safeTransferFrom}."
      },
      "setApprovalForAll(address,bool)": {
        "details": "See {IERC721-setApprovalForAll}."
      },
      "supportsInterface(bytes4)": {
        "details": "See {IERC165-supportsInterface}."
      },
      "symbol()": {
        "details": "See {IERC721Metadata-symbol}."
      },
      "tokenURI(uint256)": {
        "details": "See {IERC721Metadata-tokenURI}."
      },
      "transferFrom(address,address,uint256)": {
        "details": "See {IERC721-transferFrom}."
      }
    },
    "version": 1
  },
  "userdoc": {
    "kind": "user",
    "methods": {},
    "version": 1
  },
  "storageLayout": {
    "storage": [
      {
        "astId": 71,
        "contract": "contracts/DynamicSvgNft.sol:DynamicSvgNft",
        "label": "_name",
        "offset": 0,
        "slot": "0",
        "type": "t_string_storage"
      },
      {
        "astId": 73,
        "contract": "contracts/DynamicSvgNft.sol:DynamicSvgNft",
        "label": "_symbol",
        "offset": 0,
        "slot": "1",
        "type": "t_string_storage"
      },
      {
        "astId": 77,
        "contract": "contracts/DynamicSvgNft.sol:DynamicSvgNft",
        "label": "_owners",
        "offset": 0,
        "slot": "2",
        "type": "t_mapping(t_uint256,t_address)"
      },
      {
        "astId": 81,
        "contract": "contracts/DynamicSvgNft.sol:DynamicSvgNft",
        "label": "_balances",
        "offset": 0,
        "slot": "3",
        "type": "t_mapping(t_address,t_uint256)"
      },
      {
        "astId": 85,
        "contract": "contracts/DynamicSvgNft.sol:DynamicSvgNft",
        "label": "_tokenApprovals",
        "offset": 0,
        "slot": "4",
        "type": "t_mapping(t_uint256,t_address)"
      },
      {
        "astId": 91,
        "contract": "contracts/DynamicSvgNft.sol:DynamicSvgNft",
        "label": "_operatorApprovals",
        "offset": 0,
        "slot": "5",
        "type": "t_mapping(t_address,t_mapping(t_address,t_bool))"
      },
      {
        "astId": 2845,
        "contract": "contracts/DynamicSvgNft.sol:DynamicSvgNft",
        "label": "s_tokenCounter",
        "offset": 0,
        "slot": "6",
        "type": "t_uint256"
      },
      {
        "astId": 2847,
        "contract": "contracts/DynamicSvgNft.sol:DynamicSvgNft",
        "label": "i_lowImageUri",
        "offset": 0,
        "slot": "7",
        "type": "t_string_storage"
      },
      {
        "astId": 2849,
        "contract": "contracts/DynamicSvgNft.sol:DynamicSvgNft",
        "label": "i_highImageUri",
        "offset": 0,
        "slot": "8",
        "type": "t_string_storage"
      },
      {
        "astId": 2859,
        "contract": "contracts/DynamicSvgNft.sol:DynamicSvgNft",
        "label": "s_tokenIdToHighValue",
        "offset": 0,
        "slot": "9",
        "type": "t_mapping(t_uint256,t_int256)"
      }
    ],
    "types": {
      "t_address": {
        "encoding": "inplace",
        "label": "address",
        "numberOfBytes": "20"
      },
      "t_bool": {
        "encoding": "inplace",
        "label": "bool",
        "numberOfBytes": "1"
      },
      "t_int256": {
        "encoding": "inplace",
        "label": "int256",
        "numberOfBytes": "32"
      },
      "t_mapping(t_address,t_bool)": {
        "encoding": "mapping",
        "key": "t_address",
        "label": "mapping(address => bool)",
        "numberOfBytes": "32",
        "value": "t_bool"
      },
      "t_mapping(t_address,t_mapping(t_address,t_bool))": {
        "encoding": "mapping",
        "key": "t_address",
        "label": "mapping(address => mapping(address => bool))",
        "numberOfBytes": "32",
        "value": "t_mapping(t_address,t_bool)"
      },
      "t_mapping(t_address,t_uint256)": {
        "encoding": "mapping",
        "key": "t_address",
        "label": "mapping(address => uint256)",
        "numberOfBytes": "32",
        "value": "t_uint256"
      },
      "t_mapping(t_uint256,t_address)": {
        "encoding": "mapping",
        "key": "t_uint256",
        "label": "mapping(uint256 => address)",
        "numberOfBytes": "32",
        "value": "t_address"
      },
      "t_mapping(t_uint256,t_int256)": {
        "encoding": "mapping",
        "key": "t_uint256",
        "label": "mapping(uint256 => int256)",
        "numberOfBytes": "32",
        "value": "t_int256"
      },
      "t_string_storage": {
        "encoding": "bytes",
        "label": "string",
        "numberOfBytes": "32"
      },
      "t_uint256": {
        "encoding": "inplace",
        "label": "uint256",
        "numberOfBytes": "32"
      }
    }
  }
}