{
  "address": "0x06353c3a0a976927b9090D516cEBaF6654f02645",
  "abi": [
    {
      "inputs": [
        {
          "internalType": "address",
          "name": "vrfCoordinatorV2",
          "type": "address"
        },
        {
          "internalType": "uint64",
          "name": "subscriptionId",
          "type": "uint64"
        },
        {
          "internalType": "bytes32",
          "name": "gasLane",
          "type": "bytes32"
        },
        {
          "internalType": "uint32",
          "name": "callbackGasLimit",
          "type": "uint32"
        },
        {
          "internalType": "string[3]",
          "name": "dogTokenUris",
          "type": "string[3]"
        },
        {
          "internalType": "uint256",
          "name": "mintFee",
          "type": "uint256"
        }
      ],
      "stateMutability": "nonpayable",
      "type": "constructor"
    },
    {
      "inputs": [
        {
          "internalType": "address",
          "name": "have",
          "type": "address"
        },
        {
          "internalType": "address",
          "name": "want",
          "type": "address"
        }
      ],
      "name": "OnlyCoordinatorCanFulfill",
      "type": "error"
    },
    {
      "inputs": [],
      "name": "RandomIpfsNft__NeedMoreEthSent",
      "type": "error"
    },
    {
      "inputs": [],
      "name": "RandomIpfsNft__RangeOutOfBounds",
      "type": "error"
    },
    {
      "inputs": [],
      "name": "RandomIpfsNft__TransferFailed",
      "type": "error"
    },
    {
      "anonymous": false,
      "inputs": [
        {
          "indexed": true,
          "internalType": "address",
          "name": "owner",
          "type": "address"
        },
        {
          "indexed": true,
          "internalType": "address",
          "name": "approved",
          "type": "address"
        },
        {
          "indexed": true,
          "internalType": "uint256",
          "name": "tokenId",
          "type": "uint256"
        }
      ],
      "name": "Approval",
      "type": "event"
    },
    {
      "anonymous": false,
      "inputs": [
        {
          "indexed": true,
          "internalType": "address",
          "name": "owner",
          "type": "address"
        },
        {
          "indexed": true,
          "internalType": "address",
          "name": "operator",
          "type": "address"
        },
        {
          "indexed": false,
          "internalType": "bool",
          "name": "approved",
          "type": "bool"
        }
      ],
      "name": "ApprovalForAll",
      "type": "event"
    },
    {
      "anonymous": false,
      "inputs": [
        {
          "indexed": false,
          "internalType": "uint256",
          "name": "_fromTokenId",
          "type": "uint256"
        },
        {
          "indexed": false,
          "internalType": "uint256",
          "name": "_toTokenId",
          "type": "uint256"
        }
      ],
      "name": "BatchMetadataUpdate",
      "type": "event"
    },
    {
      "anonymous": false,
      "inputs": [
        {
          "indexed": false,
          "internalType": "uint256",
          "name": "_tokenId",
          "type": "uint256"
        }
      ],
      "name": "MetadataUpdate",
      "type": "event"
    },
    {
      "anonymous": false,
      "inputs": [
        {
          "indexed": false,
          "internalType": "enum RandomIpfsNft.Breed",
          "name": "dogBreed",
          "type": "uint8"
        },
        {
          "indexed": false,
          "internalType": "address",
          "name": "minter",
          "type": "address"
        }
      ],
      "name": "NftMinted",
      "type": "event"
    },
    {
      "anonymous": false,
      "inputs": [
        {
          "indexed": true,
          "internalType": "uint256",
          "name": "requestId",
          "type": "uint256"
        }
      ],
      "name": "NftRequested",
      "type": "event"
    },
    {
      "anonymous": false,
      "inputs": [
        {
          "indexed": true,
          "internalType": "address",
          "name": "previousOwner",
          "type": "address"
        },
        {
          "indexed": true,
          "internalType": "address",
          "name": "newOwner",
          "type": "address"
        }
      ],
      "name": "OwnershipTransferred",
      "type": "event"
    },
    {
      "anonymous": false,
      "inputs": [
        {
          "indexed": true,
          "internalType": "address",
          "name": "from",
          "type": "address"
        },
        {
          "indexed": true,
          "internalType": "address",
          "name": "to",
          "type": "address"
        },
        {
          "indexed": true,
          "internalType": "uint256",
          "name": "tokenId",
          "type": "uint256"
        }
      ],
      "name": "Transfer",
      "type": "event"
    },
    {
      "inputs": [
        {
          "internalType": "address",
          "name": "to",
          "type": "address"
        },
        {
          "internalType": "uint256",
          "name": "tokenId",
          "type": "uint256"
        }
      ],
      "name": "approve",
      "outputs": [],
      "stateMutability": "nonpayable",
      "type": "function"
    },
    {
      "inputs": [
        {
          "internalType": "address",
          "name": "owner",
          "type": "address"
        }
      ],
      "name": "balanceOf",
      "outputs": [
        {
          "internalType": "uint256",
          "name": "",
          "type": "uint256"
        }
      ],
      "stateMutability": "view",
      "type": "function"
    },
    {
      "inputs": [
        {
          "internalType": "uint256",
          "name": "tokenId",
          "type": "uint256"
        }
      ],
      "name": "getApproved",
      "outputs": [
        {
          "internalType": "address",
          "name": "",
          "type": "address"
        }
      ],
      "stateMutability": "view",
      "type": "function"
    },
    {
      "inputs": [
        {
          "internalType": "uint256",
          "name": "moddedRng",
          "type": "uint256"
        }
      ],
      "name": "getBreedFromModdedRng",
      "outputs": [
        {
          "internalType": "enum RandomIpfsNft.Breed",
          "name": "",
          "type": "uint8"
        }
      ],
      "stateMutability": "pure",
      "type": "function"
    },
    {
      "inputs": [],
      "name": "getChanceArray",
      "outputs": [
        {
          "internalType": "uint256[3]",
          "name": "",
          "type": "uint256[3]"
        }
      ],
      "stateMutability": "pure",
      "type": "function"
    },
    {
      "inputs": [
        {
          "internalType": "uint256",
          "name": "index",
          "type": "uint256"
        }
      ],
      "name": "getDogTokenUris",
      "outputs": [
        {
          "internalType": "string",
          "name": "",
          "type": "string"
        }
      ],
      "stateMutability": "view",
      "type": "function"
    },
    {
      "inputs": [],
      "name": "getMintFee",
      "outputs": [
        {
          "internalType": "uint256",
          "name": "",
          "type": "uint256"
        }
      ],
      "stateMutability": "view",
      "type": "function"
    },
    {
      "inputs": [],
      "name": "getTokenCounter",
      "outputs": [
        {
          "internalType": "uint256",
          "name": "",
          "type": "uint256"
        }
      ],
      "stateMutability": "view",
      "type": "function"
    },
    {
      "inputs": [
        {
          "internalType": "address",
          "name": "owner",
          "type": "address"
        },
        {
          "internalType": "address",
          "name": "operator",
          "type": "address"
        }
      ],
      "name": "isApprovedForAll",
      "outputs": [
        {
          "internalType": "bool",
          "name": "",
          "type": "bool"
        }
      ],
      "stateMutability": "view",
      "type": "function"
    },
    {
      "inputs": [],
      "name": "name",
      "outputs": [
        {
          "internalType": "string",
          "name": "",
          "type": "string"
        }
      ],
      "stateMutability": "view",
      "type": "function"
    },
    {
      "inputs": [],
      "name": "owner",
      "outputs": [
        {
          "internalType": "address",
          "name": "",
          "type": "address"
        }
      ],
      "stateMutability": "view",
      "type": "function"
    },
    {
      "inputs": [
        {
          "internalType": "uint256",
          "name": "tokenId",
          "type": "uint256"
        }
      ],
      "name": "ownerOf",
      "outputs": [
        {
          "internalType": "address",
          "name": "",
          "type": "address"
        }
      ],
      "stateMutability": "view",
      "type": "function"
    },
    {
      "inputs": [
        {
          "internalType": "uint256",
          "name": "requestId",
          "type": "uint256"
        },
        {
          "internalType": "uint256[]",
          "name": "randomWords",
          "type": "uint256[]"
        }
      ],
      "name": "rawFulfillRandomWords",
      "outputs": [],
      "stateMutability": "nonpayable",
      "type": "function"
    },
    {
      "inputs": [],
      "name": "renounceOwnership",
      "outputs": [],
      "stateMutability": "nonpayable",
      "type": "function"
    },
    {
      "inputs": [],
      "name": "requestNft",
      "outputs": [
        {
          "internalType": "uint256",
          "name": "requestId",
          "type": "uint256"
        }
      ],
      "stateMutability": "payable",
      "type": "function"
    },
    {
      "inputs": [
        {
          "internalType": "uint256",
          "name": "",
          "type": "uint256"
        }
      ],
      "name": "s_requestIdToSender",
      "outputs": [
        {
          "internalType": "address",
          "name": "",
          "type": "address"
        }
      ],
      "stateMutability": "view",
      "type": "function"
    },
    {
      "inputs": [],
      "name": "s_tokenCounter",
      "outputs": [
        {
          "internalType": "uint256",
          "name": "",
          "type": "uint256"
        }
      ],
      "stateMutability": "view",
      "type": "function"
    },
    {
      "inputs": [
        {
          "internalType": "address",
          "name": "from",
          "type": "address"
        },
        {
          "internalType": "address",
          "name": "to",
          "type": "address"
        },
        {
          "internalType": "uint256",
          "name": "tokenId",
          "type": "uint256"
        }
      ],
      "name": "safeTransferFrom",
      "outputs": [],
      "stateMutability": "nonpayable",
      "type": "function"
    },
    {
      "inputs": [
        {
          "internalType": "address",
          "name": "from",
          "type": "address"
        },
        {
          "internalType": "address",
          "name": "to",
          "type": "address"
        },
        {
          "internalType": "uint256",
          "name": "tokenId",
          "type": "uint256"
        },
        {
          "internalType": "bytes",
          "name": "data",
          "type": "bytes"
        }
      ],
      "name": "safeTransferFrom",
      "outputs": [],
      "stateMutability": "nonpayable",
      "type": "function"
    },
    {
      "inputs": [
        {
          "internalType": "address",
          "name": "operator",
          "type": "address"
        },
        {
          "internalType": "bool",
          "name": "approved",
          "type": "bool"
        }
      ],
      "name": "setApprovalForAll",
      "outputs": [],
      "stateMutability": "nonpayable",
      "type": "function"
    },
    {
      "inputs": [
        {
          "internalType": "bytes4",
          "name": "interfaceId",
          "type": "bytes4"
        }
      ],
      "name": "supportsInterface",
      "outputs": [
        {
          "internalType": "bool",
          "name": "",
          "type": "bool"
        }
      ],
      "stateMutability": "view",
      "type": "function"
    },
    {
      "inputs": [],
      "name": "symbol",
      "outputs": [
        {
          "internalType": "string",
          "name": "",
          "type": "string"
        }
      ],
      "stateMutability": "view",
      "type": "function"
    },
    {
      "inputs": [
        {
          "internalType": "uint256",
          "name": "tokenId",
          "type": "uint256"
        }
      ],
      "name": "tokenURI",
      "outputs": [
        {
          "internalType": "string",
          "name": "",
          "type": "string"
        }
      ],
      "stateMutability": "view",
      "type": "function"
    },
    {
      "inputs": [
        {
          "internalType": "address",
          "name": "from",
          "type": "address"
        },
        {
          "internalType": "address",
          "name": "to",
          "type": "address"
        },
        {
          "internalType": "uint256",
          "name": "tokenId",
          "type": "uint256"
        }
      ],
      "name": "transferFrom",
      "outputs": [],
      "stateMutability": "nonpayable",
      "type": "function"
    },
    {
      "inputs": [
        {
          "internalType": "address",
          "name": "newOwner",
          "type": "address"
        }
      ],
      "name": "transferOwnership",
      "outputs": [],
      "stateMutability": "nonpayable",
      "type": "function"
    },
    {
      "inputs": [],
      "name": "withDraw",
      "outputs": [],
      "stateMutability": "nonpayable",
      "type": "function"
    }
  ],
  "transactionHash": "0x734597d335a07f8a6bad35c181db7110568a534bb3a516555406bde0e10d2fa4",
  "args": [
    "0x8103b0a8a00be2ddc778e6e7eaa21791cd364625",
    "4219",
    "0x474e34a077df58807dbe9c96d3c009b23b3c6d0cce433e59bbf5b34f823bc56c",
    "500000",
    [
      "ipfs://QmUPppocq3X1eAepEQR3KRgojjpRoS155FsYqwafen5AYo",
      "ipfs://QmVDMaYWYiw1GMbzp3atuqN4Hepu9Wv95wxCAwf24QrL4M",
      "ipfs://QmbMh8o41PqYCzG6vgafUJC7jkE4kpSvU8xu5bNBuUnWdi"
    ],
    "10000000000000000"
  ],
  "numDeployments": 1,
  "solcInputHash": "24219645bf68c7b7f96b1442937a68f8",
  "bytecode": "0x6101406040523480156200001257600080fd5b50604051620044a3380380620044a3833981810160405281019062000038919062000813565b6040518060400160405280600f81526020017f52616e646f6d2049706673204e667400000000000000000000000000000000008152506040518060400160405280600381526020017f52494e0000000000000000000000000000000000000000000000000000000000815250878073ffffffffffffffffffffffffffffffffffffffff1660808173ffffffffffffffffffffffffffffffffffffffff1660601b81525050508160009080519060200190620000f5929190620002a6565b5080600190805190602001906200010e929190620002a6565b5050506200013162000125620001d860201b60201c565b620001e060201b60201c565b8573ffffffffffffffffffffffffffffffffffffffff1660a08173ffffffffffffffffffffffffffffffffffffffff1660601b815250508467ffffffffffffffff1660c08167ffffffffffffffff1660c01b815250508360e081815250508263ffffffff166101008163ffffffff1660e01b815250506000600881905550816009906003620001c292919062000337565b5080610120818152505050505050505062000933565b600033905090565b6000600760009054906101000a900473ffffffffffffffffffffffffffffffffffffffff16905081600760006101000a81548173ffffffffffffffffffffffffffffffffffffffff021916908373ffffffffffffffffffffffffffffffffffffffff1602179055508173ffffffffffffffffffffffffffffffffffffffff168173ffffffffffffffffffffffffffffffffffffffff167f8be0079c531659141344cd1fd0a4f28419497f9722a3daafe3b4186f6b6457e060405160405180910390a35050565b828054620002b490620008fd565b90600052602060002090601f016020900481019282620002d8576000855562000324565b82601f10620002f357805160ff191683800117855562000324565b8280016001018555821562000324579182015b828111156200032357825182559160200191906001019062000306565b5b5090506200033391906200039e565b5090565b8280548282559060005260206000209081019282156200038b579160200282015b828111156200038a57825182908051906020019062000379929190620002a6565b509160200191906001019062000358565b5b5090506200039a9190620003bd565b5090565b5b80821115620003b95760008160009055506001016200039f565b5090565b5b80821115620003e15760008181620003d79190620003e5565b50600101620003be565b5090565b508054620003f390620008fd565b6000825580601f1062000407575062000428565b601f0160209004906000526020600020908101906200042791906200039e565b5b50565b6000604051905090565b600080fd5b600080fd5b600073ffffffffffffffffffffffffffffffffffffffff82169050919050565b60006200046c826200043f565b9050919050565b6200047e816200045f565b81146200048a57600080fd5b50565b6000815190506200049e8162000473565b92915050565b600067ffffffffffffffff82169050919050565b620004c381620004a4565b8114620004cf57600080fd5b50565b600081519050620004e381620004b8565b92915050565b6000819050919050565b620004fe81620004e9565b81146200050a57600080fd5b50565b6000815190506200051e81620004f3565b92915050565b600063ffffffff82169050919050565b6200053f8162000524565b81146200054b57600080fd5b50565b6000815190506200055f8162000534565b92915050565b600080fd5b6000601f19601f8301169050919050565b7f4e487b7100000000000000000000000000000000000000000000000000000000600052604160045260246000fd5b620005b5826200056a565b810181811067ffffffffffffffff82111715620005d757620005d66200057b565b5b80604052505050565b6000620005ec6200042b565b9050620005fa8282620005aa565b919050565b600067ffffffffffffffff8211156200061d576200061c6200057b565b5b602082029050919050565b600080fd5b600080fd5b600067ffffffffffffffff82111562000650576200064f6200057b565b5b6200065b826200056a565b9050602081019050919050565b60005b83811015620006885780820151818401526020810190506200066b565b8381111562000698576000848401525b50505050565b6000620006b5620006af8462000632565b620005e0565b905082815260208101848484011115620006d457620006d36200062d565b5b620006e184828562000668565b509392505050565b600082601f83011262000701576200070062000565565b5b8151620007138482602086016200069e565b91505092915050565b6000620007336200072d84620005ff565b620005e0565b9050806020840283018581111562000750576200074f62000628565b5b835b818110156200079e57805167ffffffffffffffff81111562000779576200077862000565565b5b808601620007888982620006e9565b8552602085019450505060208101905062000752565b5050509392505050565b600082601f830112620007c057620007bf62000565565b5b6003620007cf8482856200071c565b91505092915050565b6000819050919050565b620007ed81620007d8565b8114620007f957600080fd5b50565b6000815190506200080d81620007e2565b92915050565b60008060008060008060c0878903121562000833576200083262000435565b5b60006200084389828a016200048d565b96505060206200085689828a01620004d2565b95505060406200086989828a016200050d565b94505060606200087c89828a016200054e565b935050608087015167ffffffffffffffff811115620008a0576200089f6200043a565b5b620008ae89828a01620007a8565b92505060a0620008c189828a01620007fc565b9150509295509295509295565b7f4e487b7100000000000000000000000000000000000000000000000000000000600052602260045260246000fd5b600060028204905060018216806200091657607f821691505b602082108114156200092d576200092c620008ce565b5b50919050565b60805160601c60a05160601c60c05160c01c60e0516101005160e01c61012051613b066200099d60003960008181610cca0152610ed901526000610fb301526000610f6f01526000610f9001526000610f3301526000818161095001526109a40152613b066000f3fe6080604052600436106101815760003560e01c806370a08231116100d1578063a36f573b1161008a578063b88d4fde11610064578063b88d4fde14610577578063c87b56dd146105a0578063e985e9c5146105dd578063f2fde38b1461061a57610181565b8063a36f573b146104df578063a51cccf31461051c578063aa1524911461055957610181565b806370a08231146103e1578063715018a61461041e5780637a5caab3146104355780638da5cb5b1461046057806395d89b411461048b578063a22cb465146104b657610181565b80631fe543e31161013e57806342842e0e1161011857806342842e0e146103255780635dacf5f41461034e5780636352211e146103795780636e02007d146103b657610181565b80631fe543e31461029657806323b872dd146102bf5780633af25975146102e857610181565b806301ffc9a71461018657806306fdde03146101c3578063081812fc146101ee578063095ea7b31461022b5780630b21a83b146102545780630fdb1c101461027f575b600080fd5b34801561019257600080fd5b506101ad60048036038101906101a89190612719565b610643565b6040516101ba9190612761565b60405180910390f35b3480156101cf57600080fd5b506101d86106a4565b6040516101e59190612815565b60405180910390f35b3480156101fa57600080fd5b506102156004803603810190610210919061286d565b610736565b60405161022291906128db565b60405180910390f35b34801561023757600080fd5b50610252600480360381019061024d9190612922565b61077c565b005b34801561026057600080fd5b50610269610894565b6040516102769190612971565b60405180910390f35b34801561028b57600080fd5b5061029461089a565b005b3480156102a257600080fd5b506102bd60048036038101906102b89190612ad4565b61094e565b005b3480156102cb57600080fd5b506102e660048036038101906102e19190612b30565b610a0e565b005b3480156102f457600080fd5b5061030f600480360381019061030a919061286d565b610a6e565b60405161031c9190612815565b60405180910390f35b34801561033157600080fd5b5061034c60048036038101906103479190612b30565b610b1e565b005b34801561035a57600080fd5b50610363610b3e565b6040516103709190612c2e565b60405180910390f35b34801561038557600080fd5b506103a0600480360381019061039b919061286d565b610b69565b6040516103ad91906128db565b60405180910390f35b3480156103c257600080fd5b506103cb610bf0565b6040516103d89190612971565b60405180910390f35b3480156103ed57600080fd5b5061040860048036038101906104039190612c49565b610bfa565b6040516104159190612971565b60405180910390f35b34801561042a57600080fd5b50610433610cb2565b005b34801561044157600080fd5b5061044a610cc6565b6040516104579190612971565b60405180910390f35b34801561046c57600080fd5b50610475610cee565b60405161048291906128db565b60405180910390f35b34801561049757600080fd5b506104a0610d18565b6040516104ad9190612815565b60405180910390f35b3480156104c257600080fd5b506104dd60048036038101906104d89190612ca2565b610daa565b005b3480156104eb57600080fd5b506105066004803603810190610501919061286d565b610dc0565b60405161051391906128db565b60405180910390f35b34801561052857600080fd5b50610543600480360381019061053e919061286d565b610df3565b6040516105509190612d59565b60405180910390f35b610561610ed5565b60405161056e9190612971565b60405180910390f35b34801561058357600080fd5b5061059e60048036038101906105999190612e29565b61109d565b005b3480156105ac57600080fd5b506105c760048036038101906105c2919061286d565b6110ff565b6040516105d49190612815565b60405180910390f35b3480156105e957600080fd5b5061060460048036038101906105ff9190612eac565b611212565b6040516106119190612761565b60405180910390f35b34801561062657600080fd5b50610641600480360381019061063c9190612c49565b6112a6565b005b6000634906490660e01b7bffffffffffffffffffffffffffffffffffffffffffffffffffffffff1916827bffffffffffffffffffffffffffffffffffffffffffffffffffffffff1916148061069d575061069c8261132a565b5b9050919050565b6060600080546106b390612f1b565b80601f01602080910402602001604051908101604052809291908181526020018280546106df90612f1b565b801561072c5780601f106107015761010080835404028352916020019161072c565b820191906000526020600020905b81548152906001019060200180831161070f57829003601f168201915b5050505050905090565b60006107418261140c565b6004600083815260200190815260200160002060009054906101000a900473ffffffffffffffffffffffffffffffffffffffff169050919050565b600061078782610b69565b90508073ffffffffffffffffffffffffffffffffffffffff168373ffffffffffffffffffffffffffffffffffffffff1614156107f8576040517f08c379a00000000000000000000000000000000000000000000000000000000081526004016107ef90612fbf565b60405180910390fd5b8073ffffffffffffffffffffffffffffffffffffffff16610817611457565b73ffffffffffffffffffffffffffffffffffffffff161480610846575061084581610840611457565b611212565b5b610885576040517f08c379a000000000000000000000000000000000000000000000000000000000815260040161087c90613051565b60405180910390fd5b61088f838361145f565b505050565b60085481565b6108a2611518565b600047905060003373ffffffffffffffffffffffffffffffffffffffff16826040516108cd906130a2565b60006040518083038185875af1925050503d806000811461090a576040519150601f19603f3d011682016040523d82523d6000602084013e61090f565b606091505b505090508061094a576040517fca7e25b700000000000000000000000000000000000000000000000000000000815260040160405180910390fd5b5050565b7f000000000000000000000000000000000000000000000000000000000000000073ffffffffffffffffffffffffffffffffffffffff163373ffffffffffffffffffffffffffffffffffffffff1614610a0057337f00000000000000000000000000000000000000000000000000000000000000006040517f1cf993f40000000000000000000000000000000000000000000000000000000081526004016109f79291906130b7565b60405180910390fd5b610a0a8282611596565b5050565b610a1f610a19611457565b82611730565b610a5e576040517f08c379a0000000000000000000000000000000000000000000000000000000008152600401610a5590613152565b60405180910390fd5b610a698383836117c5565b505050565b606060098281548110610a8457610a83613172565b5b906000526020600020018054610a9990612f1b565b80601f0160208091040260200160405190810160405280929190818152602001828054610ac590612f1b565b8015610b125780601f10610ae757610100808354040283529160200191610b12565b820191906000526020600020905b815481529060010190602001808311610af557829003601f168201915b50505050509050919050565b610b398383836040518060200160405280600081525061109d565b505050565b610b466125e8565b6040518060600160405280600a8152602001601e81526020016064815250905090565b600080610b7583611abf565b9050600073ffffffffffffffffffffffffffffffffffffffff168173ffffffffffffffffffffffffffffffffffffffff161415610be7576040517f08c379a0000000000000000000000000000000000000000000000000000000008152600401610bde906131ed565b60405180910390fd5b80915050919050565b6000600854905090565b60008073ffffffffffffffffffffffffffffffffffffffff168273ffffffffffffffffffffffffffffffffffffffff161415610c6b576040517f08c379a0000000000000000000000000000000000000000000000000000000008152600401610c629061327f565b60405180910390fd5b600360008373ffffffffffffffffffffffffffffffffffffffff1673ffffffffffffffffffffffffffffffffffffffff168152602001908152602001600020549050919050565b610cba611518565b610cc46000611afc565b565b60007f0000000000000000000000000000000000000000000000000000000000000000905090565b6000600760009054906101000a900473ffffffffffffffffffffffffffffffffffffffff16905090565b606060018054610d2790612f1b565b80601f0160208091040260200160405190810160405280929190818152602001828054610d5390612f1b565b8015610da05780601f10610d7557610100808354040283529160200191610da0565b820191906000526020600020905b815481529060010190602001808311610d8357829003601f168201915b5050505050905090565b610dbc610db5611457565b8383611bc2565b5050565b600a6020528060005260406000206000915054906101000a900473ffffffffffffffffffffffffffffffffffffffff1681565b600080600090506000610e04610b3e565b905060005b6003811015610e9d57828510158015610e435750818160038110610e3057610e2f613172565b5b602002015183610e4091906132ce565b85105b15610e6557806002811115610e5b57610e5a612ce2565b5b9350505050610ed0565b818160038110610e7857610e77613172565b5b602002015183610e8891906132ce565b92508080610e9590613324565b915050610e09565b506040517f12806c9d00000000000000000000000000000000000000000000000000000000815260040160405180910390fd5b919050565b60007f0000000000000000000000000000000000000000000000000000000000000000341015610f31576040517ff64fbfee00000000000000000000000000000000000000000000000000000000815260040160405180910390fd5b7f000000000000000000000000000000000000000000000000000000000000000073ffffffffffffffffffffffffffffffffffffffff16635d3b1d307f00000000000000000000000000000000000000000000000000000000000000007f000000000000000000000000000000000000000000000000000000000000000060037f000000000000000000000000000000000000000000000000000000000000000060016040518663ffffffff1660e01b8152600401610ff49594939291906133e5565b602060405180830381600087803b15801561100e57600080fd5b505af1158015611022573d6000803e3d6000fd5b505050506040513d601f19601f82011682018060405250810190611046919061344d565b905033600a600083815260200190815260200160002060006101000a81548173ffffffffffffffffffffffffffffffffffffffff021916908373ffffffffffffffffffffffffffffffffffffffff16021790555090565b6110ae6110a8611457565b83611730565b6110ed576040517f08c379a00000000000000000000000000000000000000000000000000000000081526004016110e490613152565b60405180910390fd5b6110f984848484611d2f565b50505050565b606061110a8261140c565b600060066000848152602001908152602001600020805461112a90612f1b565b80601f016020809104026020016040519081016040528092919081815260200182805461115690612f1b565b80156111a35780601f10611178576101008083540402835291602001916111a3565b820191906000526020600020905b81548152906001019060200180831161118657829003601f168201915b5050505050905060006111b4611d8b565b90506000815114156111ca57819250505061120d565b6000825111156111ff5780826040516020016111e79291906134b6565b6040516020818303038152906040529250505061120d565b61120884611da2565b925050505b919050565b6000600560008473ffffffffffffffffffffffffffffffffffffffff1673ffffffffffffffffffffffffffffffffffffffff16815260200190815260200160002060008373ffffffffffffffffffffffffffffffffffffffff1673ffffffffffffffffffffffffffffffffffffffff16815260200190815260200160002060009054906101000a900460ff16905092915050565b6112ae611518565b600073ffffffffffffffffffffffffffffffffffffffff168173ffffffffffffffffffffffffffffffffffffffff16141561131e576040517f08c379a00000000000000000000000000000000000000000000000000000000081526004016113159061354c565b60405180910390fd5b61132781611afc565b50565b60007f80ac58cd000000000000000000000000000000000000000000000000000000007bffffffffffffffffffffffffffffffffffffffffffffffffffffffff1916827bffffffffffffffffffffffffffffffffffffffffffffffffffffffff191614806113f557507f5b5e139f000000000000000000000000000000000000000000000000000000007bffffffffffffffffffffffffffffffffffffffffffffffffffffffff1916827bffffffffffffffffffffffffffffffffffffffffffffffffffffffff1916145b80611405575061140482611e0a565b5b9050919050565b61141581611e74565b611454576040517f08c379a000000000000000000000000000000000000000000000000000000000815260040161144b906131ed565b60405180910390fd5b50565b600033905090565b816004600083815260200190815260200160002060006101000a81548173ffffffffffffffffffffffffffffffffffffffff021916908373ffffffffffffffffffffffffffffffffffffffff160217905550808273ffffffffffffffffffffffffffffffffffffffff166114d283610b69565b73ffffffffffffffffffffffffffffffffffffffff167f8c5be1e5ebec7d5bd14f71427d1e84f3dd0314c0f7b2291e5b200ac8c7c3b92560405160405180910390a45050565b611520611457565b73ffffffffffffffffffffffffffffffffffffffff1661153e610cee565b73ffffffffffffffffffffffffffffffffffffffff1614611594576040517f08c379a000000000000000000000000000000000000000000000000000000000815260040161158b906135b8565b60405180910390fd5b565b6000600a600084815260200190815260200160002060009054906101000a900473ffffffffffffffffffffffffffffffffffffffff1690506000600854905060006064846000815181106115ed576115ec613172565b5b60200260200101516115ff9190613607565b9050600061160c82610df3565b9050600160085461161d91906132ce565b60088190555061162d8484611eb5565b6116ef83600983600281111561164657611645612ce2565b5b8154811061165757611656613172565b5b90600052602060002001805461166c90612f1b565b80601f016020809104026020016040519081016040528092919081815260200182805461169890612f1b565b80156116e55780601f106116ba576101008083540402835291602001916116e5565b820191906000526020600020905b8154815290600101906020018083116116c857829003601f168201915b5050505050611ed3565b7f8a269f26b688e110e9cbd887d163dab35cae678fa353a0292de532c0cac1ecdc8185604051611720929190613638565b60405180910390a1505050505050565b60008061173c83610b69565b90508073ffffffffffffffffffffffffffffffffffffffff168473ffffffffffffffffffffffffffffffffffffffff16148061177e575061177d8185611212565b5b806117bc57508373ffffffffffffffffffffffffffffffffffffffff166117a484610736565b73ffffffffffffffffffffffffffffffffffffffff16145b91505092915050565b8273ffffffffffffffffffffffffffffffffffffffff166117e582610b69565b73ffffffffffffffffffffffffffffffffffffffff161461183b576040517f08c379a0000000000000000000000000000000000000000000000000000000008152600401611832906136d3565b60405180910390fd5b600073ffffffffffffffffffffffffffffffffffffffff168273ffffffffffffffffffffffffffffffffffffffff1614156118ab576040517f08c379a00000000000000000000000000000000000000000000000000000000081526004016118a290613765565b60405180910390fd5b6118b88383836001611f7e565b8273ffffffffffffffffffffffffffffffffffffffff166118d882610b69565b73ffffffffffffffffffffffffffffffffffffffff161461192e576040517f08c379a0000000000000000000000000000000000000000000000000000000008152600401611925906136d3565b60405180910390fd5b6004600082815260200190815260200160002060006101000a81549073ffffffffffffffffffffffffffffffffffffffff02191690556001600360008573ffffffffffffffffffffffffffffffffffffffff1673ffffffffffffffffffffffffffffffffffffffff168152602001908152602001600020600082825403925050819055506001600360008473ffffffffffffffffffffffffffffffffffffffff1673ffffffffffffffffffffffffffffffffffffffff16815260200190815260200160002060008282540192505081905550816002600083815260200190815260200160002060006101000a81548173ffffffffffffffffffffffffffffffffffffffff021916908373ffffffffffffffffffffffffffffffffffffffff160217905550808273ffffffffffffffffffffffffffffffffffffffff168473ffffffffffffffffffffffffffffffffffffffff167fddf252ad1be2c89b69c2b068fc378daa952ba7f163c4a11628f55a4df523b3ef60405160405180910390a4611aba8383836001611f84565b505050565b60006002600083815260200190815260200160002060009054906101000a900473ffffffffffffffffffffffffffffffffffffffff169050919050565b6000600760009054906101000a900473ffffffffffffffffffffffffffffffffffffffff16905081600760006101000a81548173ffffffffffffffffffffffffffffffffffffffff021916908373ffffffffffffffffffffffffffffffffffffffff1602179055508173ffffffffffffffffffffffffffffffffffffffff168173ffffffffffffffffffffffffffffffffffffffff167f8be0079c531659141344cd1fd0a4f28419497f9722a3daafe3b4186f6b6457e060405160405180910390a35050565b8173ffffffffffffffffffffffffffffffffffffffff168373ffffffffffffffffffffffffffffffffffffffff161415611c31576040517f08c379a0000000000000000000000000000000000000000000000000000000008152600401611c28906137d1565b60405180910390fd5b80600560008573ffffffffffffffffffffffffffffffffffffffff1673ffffffffffffffffffffffffffffffffffffffff16815260200190815260200160002060008473ffffffffffffffffffffffffffffffffffffffff1673ffffffffffffffffffffffffffffffffffffffff16815260200190815260200160002060006101000a81548160ff0219169083151502179055508173ffffffffffffffffffffffffffffffffffffffff168373ffffffffffffffffffffffffffffffffffffffff167f17307eab39ab6107e8899845ad3d59bd9653f200f220920489ca2b5937696c3183604051611d229190612761565b60405180910390a3505050565b611d3a8484846117c5565b611d4684848484611f8a565b611d85576040517f08c379a0000000000000000000000000000000000000000000000000000000008152600401611d7c90613863565b60405180910390fd5b50505050565b606060405180602001604052806000815250905090565b6060611dad8261140c565b6000611db7611d8b565b90506000815111611dd75760405180602001604052806000815250611e02565b80611de184612121565b604051602001611df29291906134b6565b6040516020818303038152906040525b915050919050565b60007f01ffc9a7000000000000000000000000000000000000000000000000000000007bffffffffffffffffffffffffffffffffffffffffffffffffffffffff1916827bffffffffffffffffffffffffffffffffffffffffffffffffffffffff1916149050919050565b60008073ffffffffffffffffffffffffffffffffffffffff16611e9683611abf565b73ffffffffffffffffffffffffffffffffffffffff1614159050919050565b611ecf8282604051806020016040528060008152506121f9565b5050565b611edc82611e74565b611f1b576040517f08c379a0000000000000000000000000000000000000000000000000000000008152600401611f12906138f5565b60405180910390fd5b80600660008481526020019081526020016000209080519060200190611f4292919061260a565b507ff8e1a15aba9398e019f0b49df1a4fde98ee17ae345cb5f6b5e2c27f5033e8ce782604051611f729190612971565b60405180910390a15050565b50505050565b50505050565b6000611fab8473ffffffffffffffffffffffffffffffffffffffff16612254565b15612114578373ffffffffffffffffffffffffffffffffffffffff1663150b7a02611fd4611457565b8786866040518563ffffffff1660e01b8152600401611ff6949392919061396a565b602060405180830381600087803b15801561201057600080fd5b505af192505050801561204157506040513d601f19601f8201168201806040525081019061203e91906139cb565b60015b6120c4573d8060008114612071576040519150601f19603f3d011682016040523d82523d6000602084013e612076565b606091505b506000815114156120bc576040517f08c379a00000000000000000000000000000000000000000000000000000000081526004016120b390613863565b60405180910390fd5b805181602001fd5b63150b7a0260e01b7bffffffffffffffffffffffffffffffffffffffffffffffffffffffff1916817bffffffffffffffffffffffffffffffffffffffffffffffffffffffff191614915050612119565b600190505b949350505050565b60606000600161213084612277565b01905060008167ffffffffffffffff81111561214f5761214e612991565b5b6040519080825280601f01601f1916602001820160405280156121815781602001600182028036833780820191505090505b509050600082602001820190505b6001156121ee578080600190039150507f3031323334353637383961626364656600000000000000000000000000000000600a86061a8153600a85816121d8576121d76135d8565b5b04945060008514156121e9576121ee565b61218f565b819350505050919050565b61220383836123ca565b6122106000848484611f8a565b61224f576040517f08c379a000000000000000000000000000000000000000000000000000000000815260040161224690613863565b60405180910390fd5b505050565b6000808273ffffffffffffffffffffffffffffffffffffffff163b119050919050565b600080600090507a184f03e93ff9f4daa797ed6e38ed64bf6a1f01000000000000000083106122d5577a184f03e93ff9f4daa797ed6e38ed64bf6a1f01000000000000000083816122cb576122ca6135d8565b5b0492506040810190505b6d04ee2d6d415b85acef81000000008310612312576d04ee2d6d415b85acef81000000008381612308576123076135d8565b5b0492506020810190505b662386f26fc10000831061234157662386f26fc100008381612337576123366135d8565b5b0492506010810190505b6305f5e100831061236a576305f5e10083816123605761235f6135d8565b5b0492506008810190505b612710831061238f576127108381612385576123846135d8565b5b0492506004810190505b606483106123b257606483816123a8576123a76135d8565b5b0492506002810190505b600a83106123c1576001810190505b80915050919050565b600073ffffffffffffffffffffffffffffffffffffffff168273ffffffffffffffffffffffffffffffffffffffff16141561243a576040517f08c379a000000000000000000000000000000000000000000000000000000000815260040161243190613a44565b60405180910390fd5b61244381611e74565b15612483576040517f08c379a000000000000000000000000000000000000000000000000000000000815260040161247a90613ab0565b60405180910390fd5b612491600083836001611f7e565b61249a81611e74565b156124da576040517f08c379a00000000000000000000000000000000000000000000000000000000081526004016124d190613ab0565b60405180910390fd5b6001600360008473ffffffffffffffffffffffffffffffffffffffff1673ffffffffffffffffffffffffffffffffffffffff16815260200190815260200160002060008282540192505081905550816002600083815260200190815260200160002060006101000a81548173ffffffffffffffffffffffffffffffffffffffff021916908373ffffffffffffffffffffffffffffffffffffffff160217905550808273ffffffffffffffffffffffffffffffffffffffff16600073ffffffffffffffffffffffffffffffffffffffff167fddf252ad1be2c89b69c2b068fc378daa952ba7f163c4a11628f55a4df523b3ef60405160405180910390a46125e4600083836001611f84565b5050565b6040518060600160405280600390602082028036833780820191505090505090565b82805461261690612f1b565b90600052602060002090601f016020900481019282612638576000855561267f565b82601f1061265157805160ff191683800117855561267f565b8280016001018555821561267f579182015b8281111561267e578251825591602001919060010190612663565b5b50905061268c9190612690565b5090565b5b808211156126a9576000816000905550600101612691565b5090565b6000604051905090565b600080fd5b600080fd5b60007fffffffff0000000000000000000000000000000000000000000000000000000082169050919050565b6126f6816126c1565b811461270157600080fd5b50565b600081359050612713816126ed565b92915050565b60006020828403121561272f5761272e6126b7565b5b600061273d84828501612704565b91505092915050565b60008115159050919050565b61275b81612746565b82525050565b60006020820190506127766000830184612752565b92915050565b600081519050919050565b600082825260208201905092915050565b60005b838110156127b657808201518184015260208101905061279b565b838111156127c5576000848401525b50505050565b6000601f19601f8301169050919050565b60006127e78261277c565b6127f18185612787565b9350612801818560208601612798565b61280a816127cb565b840191505092915050565b6000602082019050818103600083015261282f81846127dc565b905092915050565b6000819050919050565b61284a81612837565b811461285557600080fd5b50565b60008135905061286781612841565b92915050565b600060208284031215612883576128826126b7565b5b600061289184828501612858565b91505092915050565b600073ffffffffffffffffffffffffffffffffffffffff82169050919050565b60006128c58261289a565b9050919050565b6128d5816128ba565b82525050565b60006020820190506128f060008301846128cc565b92915050565b6128ff816128ba565b811461290a57600080fd5b50565b60008135905061291c816128f6565b92915050565b60008060408385031215612939576129386126b7565b5b60006129478582860161290d565b925050602061295885828601612858565b9150509250929050565b61296b81612837565b82525050565b60006020820190506129866000830184612962565b92915050565b600080fd5b7f4e487b7100000000000000000000000000000000000000000000000000000000600052604160045260246000fd5b6129c9826127cb565b810181811067ffffffffffffffff821117156129e8576129e7612991565b5b80604052505050565b60006129fb6126ad565b9050612a0782826129c0565b919050565b600067ffffffffffffffff821115612a2757612a26612991565b5b602082029050602081019050919050565b600080fd5b6000612a50612a4b84612a0c565b6129f1565b90508083825260208201905060208402830185811115612a7357612a72612a38565b5b835b81811015612a9c5780612a888882612858565b845260208401935050602081019050612a75565b5050509392505050565b600082601f830112612abb57612aba61298c565b5b8135612acb848260208601612a3d565b91505092915050565b60008060408385031215612aeb57612aea6126b7565b5b6000612af985828601612858565b925050602083013567ffffffffffffffff811115612b1a57612b196126bc565b5b612b2685828601612aa6565b9150509250929050565b600080600060608486031215612b4957612b486126b7565b5b6000612b578682870161290d565b9350506020612b688682870161290d565b9250506040612b7986828701612858565b9150509250925092565b600060039050919050565b600081905092915050565b6000819050919050565b612bac81612837565b82525050565b6000612bbe8383612ba3565b60208301905092915050565b6000602082019050919050565b612be081612b83565b612bea8184612b8e565b9250612bf582612b99565b8060005b83811015612c26578151612c0d8782612bb2565b9650612c1883612bca565b925050600181019050612bf9565b505050505050565b6000606082019050612c436000830184612bd7565b92915050565b600060208284031215612c5f57612c5e6126b7565b5b6000612c6d8482850161290d565b91505092915050565b612c7f81612746565b8114612c8a57600080fd5b50565b600081359050612c9c81612c76565b92915050565b60008060408385031215612cb957612cb86126b7565b5b6000612cc78582860161290d565b9250506020612cd885828601612c8d565b9150509250929050565b7f4e487b7100000000000000000000000000000000000000000000000000000000600052602160045260246000fd5b60038110612d2257612d21612ce2565b5b50565b6000819050612d3382612d11565b919050565b6000612d4382612d25565b9050919050565b612d5381612d38565b82525050565b6000602082019050612d6e6000830184612d4a565b92915050565b600080fd5b600067ffffffffffffffff821115612d9457612d93612991565b5b612d9d826127cb565b9050602081019050919050565b82818337600083830152505050565b6000612dcc612dc784612d79565b6129f1565b905082815260208101848484011115612de857612de7612d74565b5b612df3848285612daa565b509392505050565b600082601f830112612e1057612e0f61298c565b5b8135612e20848260208601612db9565b91505092915050565b60008060008060808587031215612e4357612e426126b7565b5b6000612e518782880161290d565b9450506020612e628782880161290d565b9350506040612e7387828801612858565b925050606085013567ffffffffffffffff811115612e9457612e936126bc565b5b612ea087828801612dfb565b91505092959194509250565b60008060408385031215612ec357612ec26126b7565b5b6000612ed18582860161290d565b9250506020612ee28582860161290d565b9150509250929050565b7f4e487b7100000000000000000000000000000000000000000000000000000000600052602260045260246000fd5b60006002820490506001821680612f3357607f821691505b60208210811415612f4757612f46612eec565b5b50919050565b7f4552433732313a20617070726f76616c20746f2063757272656e74206f776e6560008201527f7200000000000000000000000000000000000000000000000000000000000000602082015250565b6000612fa9602183612787565b9150612fb482612f4d565b604082019050919050565b60006020820190508181036000830152612fd881612f9c565b9050919050565b7f4552433732313a20617070726f76652063616c6c6572206973206e6f7420746f60008201527f6b656e206f776e6572206f7220617070726f76656420666f7220616c6c000000602082015250565b600061303b603d83612787565b915061304682612fdf565b604082019050919050565b6000602082019050818103600083015261306a8161302e565b9050919050565b600081905092915050565b50565b600061308c600083613071565b91506130978261307c565b600082019050919050565b60006130ad8261307f565b9150819050919050565b60006040820190506130cc60008301856128cc565b6130d960208301846128cc565b9392505050565b7f4552433732313a2063616c6c6572206973206e6f7420746f6b656e206f776e6560008201527f72206f7220617070726f76656400000000000000000000000000000000000000602082015250565b600061313c602d83612787565b9150613147826130e0565b604082019050919050565b6000602082019050818103600083015261316b8161312f565b9050919050565b7f4e487b7100000000000000000000000000000000000000000000000000000000600052603260045260246000fd5b7f4552433732313a20696e76616c696420746f6b656e2049440000000000000000600082015250565b60006131d7601883612787565b91506131e2826131a1565b602082019050919050565b60006020820190508181036000830152613206816131ca565b9050919050565b7f4552433732313a2061646472657373207a65726f206973206e6f74206120766160008201527f6c6964206f776e65720000000000000000000000000000000000000000000000602082015250565b6000613269602983612787565b91506132748261320d565b604082019050919050565b600060208201905081810360008301526132988161325c565b9050919050565b7f4e487b7100000000000000000000000000000000000000000000000000000000600052601160045260246000fd5b60006132d982612837565b91506132e483612837565b9250827fffffffffffffffffffffffffffffffffffffffffffffffffffffffffffffffff038211156133195761331861329f565b5b828201905092915050565b600061332f82612837565b91507fffffffffffffffffffffffffffffffffffffffffffffffffffffffffffffffff8214156133625761336161329f565b5b600182019050919050565b6000819050919050565b6133808161336d565b82525050565b600067ffffffffffffffff82169050919050565b6133a381613386565b82525050565b600061ffff82169050919050565b6133c0816133a9565b82525050565b600063ffffffff82169050919050565b6133df816133c6565b82525050565b600060a0820190506133fa6000830188613377565b613407602083018761339a565b61341460408301866133b7565b61342160608301856133d6565b61342e60808301846133d6565b9695505050505050565b60008151905061344781612841565b92915050565b600060208284031215613463576134626126b7565b5b600061347184828501613438565b91505092915050565b600081905092915050565b60006134908261277c565b61349a818561347a565b93506134aa818560208601612798565b80840191505092915050565b60006134c28285613485565b91506134ce8284613485565b91508190509392505050565b7f4f776e61626c653a206e6577206f776e657220697320746865207a65726f206160008201527f6464726573730000000000000000000000000000000000000000000000000000602082015250565b6000613536602683612787565b9150613541826134da565b604082019050919050565b6000602082019050818103600083015261356581613529565b9050919050565b7f4f776e61626c653a2063616c6c6572206973206e6f7420746865206f776e6572600082015250565b60006135a2602083612787565b91506135ad8261356c565b602082019050919050565b600060208201905081810360008301526135d181613595565b9050919050565b7f4e487b7100000000000000000000000000000000000000000000000000000000600052601260045260246000fd5b600061361282612837565b915061361d83612837565b92508261362d5761362c6135d8565b5b828206905092915050565b600060408201905061364d6000830185612d4a565b61365a60208301846128cc565b9392505050565b7f4552433732313a207472616e736665722066726f6d20696e636f72726563742060008201527f6f776e6572000000000000000000000000000000000000000000000000000000602082015250565b60006136bd602583612787565b91506136c882613661565b604082019050919050565b600060208201905081810360008301526136ec816136b0565b9050919050565b7f4552433732313a207472616e7366657220746f20746865207a65726f2061646460008201527f7265737300000000000000000000000000000000000000000000000000000000602082015250565b600061374f602483612787565b915061375a826136f3565b604082019050919050565b6000602082019050818103600083015261377e81613742565b9050919050565b7f4552433732313a20617070726f766520746f2063616c6c657200000000000000600082015250565b60006137bb601983612787565b91506137c682613785565b602082019050919050565b600060208201905081810360008301526137ea816137ae565b9050919050565b7f4552433732313a207472616e7366657220746f206e6f6e20455243373231526560008201527f63656976657220696d706c656d656e7465720000000000000000000000000000602082015250565b600061384d603283612787565b9150613858826137f1565b604082019050919050565b6000602082019050818103600083015261387c81613840565b9050919050565b7f45524337323155524953746f726167653a2055524920736574206f66206e6f6e60008201527f6578697374656e7420746f6b656e000000000000000000000000000000000000602082015250565b60006138df602e83612787565b91506138ea82613883565b604082019050919050565b6000602082019050818103600083015261390e816138d2565b9050919050565b600081519050919050565b600082825260208201905092915050565b600061393c82613915565b6139468185613920565b9350613956818560208601612798565b61395f816127cb565b840191505092915050565b600060808201905061397f60008301876128cc565b61398c60208301866128cc565b6139996040830185612962565b81810360608301526139ab8184613931565b905095945050505050565b6000815190506139c5816126ed565b92915050565b6000602082840312156139e1576139e06126b7565b5b60006139ef848285016139b6565b91505092915050565b7f4552433732313a206d696e7420746f20746865207a65726f2061646472657373600082015250565b6000613a2e602083612787565b9150613a39826139f8565b602082019050919050565b60006020820190508181036000830152613a5d81613a21565b9050919050565b7f4552433732313a20746f6b656e20616c7265616479206d696e74656400000000600082015250565b6000613a9a601c83612787565b9150613aa582613a64565b602082019050919050565b60006020820190508181036000830152613ac981613a8d565b905091905056fea26469706673582212202bd809d966b3a47bf3b4dd7f9de61c8d0abfd12a52f4062692b8b173d06750d664736f6c63430008080033",
  "devdoc": {
    "kind": "dev",
    "methods": {
      "approve(address,uint256)": {
        "details": "See {IERC721-approve}."
      },
      "balanceOf(address)": {
        "details": "See {IERC721-balanceOf}."
      },
      "getApproved(uint256)": {
        "details": "See {IERC721-getApproved}."
      },
      "isApprovedForAll(address,address)": {
        "details": "See {IERC721-isApprovedForAll}."
      },
      "name()": {
        "details": "See {IERC721Metadata-name}."
      },
      "owner()": {
        "details": "Returns the address of the current owner."
      },
      "ownerOf(uint256)": {
        "details": "See {IERC721-ownerOf}."
      },
      "renounceOwnership()": {
        "details": "Leaves the contract without owner. It will not be possible to call `onlyOwner` functions. Can only be called by the current owner. NOTE: Renouncing ownership will leave the contract without an owner, thereby disabling any functionality that is only available to the owner."
      },
      "safeTransferFrom(address,address,uint256)": {
        "details": "See {IERC721-safeTransferFrom}."
      },
      "safeTransferFrom(address,address,uint256,bytes)": {
        "details": "See {IERC721-safeTransferFrom}."
      },
      "setApprovalForAll(address,bool)": {
        "details": "See {IERC721-setApprovalForAll}."
      },
      "supportsInterface(bytes4)": {
        "details": "See {IERC165-supportsInterface}"
      },
      "symbol()": {
        "details": "See {IERC721Metadata-symbol}."
      },
      "tokenURI(uint256)": {
        "details": "See {IERC721Metadata-tokenURI}."
      },
      "transferFrom(address,address,uint256)": {
        "details": "See {IERC721-transferFrom}."
      },
      "transferOwnership(address)": {
        "details": "Transfers ownership of the contract to a new account (`newOwner`). Can only be called by the current owner."
      }
    },
    "version": 1
  },
  "userdoc": {
    "kind": "user",
    "methods": {},
    "version": 1
  },
  "storageLayout": {
    "storage": [
      {
        "astId": 1278,
        "contract": "contracts/RandomIpfsNft.sol:RandomIpfsNft",
        "label": "_name",
        "offset": 0,
        "slot": "0",
        "type": "t_string_storage"
      },
      {
        "astId": 1280,
        "contract": "contracts/RandomIpfsNft.sol:RandomIpfsNft",
        "label": "_symbol",
        "offset": 0,
        "slot": "1",
        "type": "t_string_storage"
      },
      {
        "astId": 1284,
        "contract": "contracts/RandomIpfsNft.sol:RandomIpfsNft",
        "label": "_owners",
        "offset": 0,
        "slot": "2",
        "type": "t_mapping(t_uint256,t_address)"
      },
      {
        "astId": 1288,
        "contract": "contracts/RandomIpfsNft.sol:RandomIpfsNft",
        "label": "_balances",
        "offset": 0,
        "slot": "3",
        "type": "t_mapping(t_address,t_uint256)"
      },
      {
        "astId": 1292,
        "contract": "contracts/RandomIpfsNft.sol:RandomIpfsNft",
        "label": "_tokenApprovals",
        "offset": 0,
        "slot": "4",
        "type": "t_mapping(t_uint256,t_address)"
      },
      {
        "astId": 1298,
        "contract": "contracts/RandomIpfsNft.sol:RandomIpfsNft",
        "label": "_operatorApprovals",
        "offset": 0,
        "slot": "5",
        "type": "t_mapping(t_address,t_mapping(t_address,t_bool))"
      },
      {
        "astId": 2329,
        "contract": "contracts/RandomIpfsNft.sol:RandomIpfsNft",
        "label": "_tokenURIs",
        "offset": 0,
        "slot": "6",
        "type": "t_mapping(t_uint256,t_string_storage)"
      },
      {
        "astId": 1119,
        "contract": "contracts/RandomIpfsNft.sol:RandomIpfsNft",
        "label": "_owner",
        "offset": 0,
        "slot": "7",
        "type": "t_address"
      },
      {
        "astId": 4185,
        "contract": "contracts/RandomIpfsNft.sol:RandomIpfsNft",
        "label": "s_tokenCounter",
        "offset": 0,
        "slot": "8",
        "type": "t_uint256"
      },
      {
        "astId": 4191,
        "contract": "contracts/RandomIpfsNft.sol:RandomIpfsNft",
        "label": "s_dogTokeUris",
        "offset": 0,
        "slot": "9",
        "type": "t_array(t_string_storage)dyn_storage"
      },
      {
        "astId": 4195,
        "contract": "contracts/RandomIpfsNft.sol:RandomIpfsNft",
        "label": "s_requestIdToSender",
        "offset": 0,
        "slot": "10",
        "type": "t_mapping(t_uint256,t_address)"
      }
    ],
    "types": {
      "t_address": {
        "encoding": "inplace",
        "label": "address",
        "numberOfBytes": "20"
      },
      "t_array(t_string_storage)dyn_storage": {
        "base": "t_string_storage",
        "encoding": "dynamic_array",
        "label": "string[]",
        "numberOfBytes": "32"
      },
      "t_bool": {
        "encoding": "inplace",
        "label": "bool",
        "numberOfBytes": "1"
      },
      "t_mapping(t_address,t_bool)": {
        "encoding": "mapping",
        "key": "t_address",
        "label": "mapping(address => bool)",
        "numberOfBytes": "32",
        "value": "t_bool"
      },
      "t_mapping(t_address,t_mapping(t_address,t_bool))": {
        "encoding": "mapping",
        "key": "t_address",
        "label": "mapping(address => mapping(address => bool))",
        "numberOfBytes": "32",
        "value": "t_mapping(t_address,t_bool)"
      },
      "t_mapping(t_address,t_uint256)": {
        "encoding": "mapping",
        "key": "t_address",
        "label": "mapping(address => uint256)",
        "numberOfBytes": "32",
        "value": "t_uint256"
      },
      "t_mapping(t_uint256,t_address)": {
        "encoding": "mapping",
        "key": "t_uint256",
        "label": "mapping(uint256 => address)",
        "numberOfBytes": "32",
        "value": "t_address"
      },
      "t_mapping(t_uint256,t_string_storage)": {
        "encoding": "mapping",
        "key": "t_uint256",
        "label": "mapping(uint256 => string)",
        "numberOfBytes": "32",
        "value": "t_string_storage"
      },
      "t_string_storage": {
        "encoding": "bytes",
        "label": "string",
        "numberOfBytes": "32"
      },
      "t_uint256": {
        "encoding": "inplace",
        "label": "uint256",
        "numberOfBytes": "32"
      }
    }
  }
}